{
  "contractName": "ProductNewTrack",
  "abi": [
    {
      "anonymous": false,
      "inputs": [
        {
          "indexed": false,
          "internalType": "uint256",
          "name": "productId",
          "type": "uint256"
        },
        {
          "indexed": false,
          "internalType": "string",
          "name": "name",
          "type": "string"
        },
        {
          "indexed": false,
          "internalType": "uint256",
          "name": "price",
          "type": "uint256"
        },
        {
          "indexed": false,
          "internalType": "string",
          "name": "manufacturerName",
          "type": "string"
        },
        {
          "indexed": false,
          "internalType": "string",
          "name": "manufacturerDetails",
          "type": "string"
        },
        {
          "indexed": false,
          "internalType": "string",
          "name": "longitude",
          "type": "string"
        },
        {
          "indexed": false,
          "internalType": "string",
          "name": "latitude",
          "type": "string"
        },
        {
          "indexed": false,
          "internalType": "string",
          "name": "category",
          "type": "string"
        }
      ],
      "name": "ProductAdded",
      "type": "event"
    },
    {
      "anonymous": false,
      "inputs": [
        {
          "indexed": false,
          "internalType": "uint256",
          "name": "productId",
          "type": "uint256"
        },
        {
          "indexed": false,
          "internalType": "address",
          "name": "logisticsPartner",
          "type": "address"
        }
      ],
      "name": "ProductAssignedToCourier",
      "type": "event"
    },
    {
      "anonymous": false,
      "inputs": [
        {
          "indexed": false,
          "internalType": "uint256",
          "name": "productId",
          "type": "uint256"
        },
        {
          "indexed": false,
          "internalType": "address",
          "name": "customer",
          "type": "address"
        }
      ],
      "name": "ProductAssignedToCustomer",
      "type": "event"
    },
    {
      "anonymous": false,
      "inputs": [
        {
          "indexed": false,
          "internalType": "uint256",
          "name": "productId",
          "type": "uint256"
        },
        {
          "indexed": false,
          "internalType": "string",
          "name": "certificateAuthority",
          "type": "string"
        },
        {
          "indexed": false,
          "internalType": "string",
          "name": "certificateDocHash",
          "type": "string"
        }
      ],
      "name": "ProductCertified",
      "type": "event"
    },
    {
      "anonymous": false,
      "inputs": [
        {
          "indexed": false,
          "internalType": "uint256",
          "name": "productId",
          "type": "uint256"
        },
        {
          "indexed": false,
          "internalType": "string",
          "name": "deliveryStatus",
          "type": "string"
        },
        {
          "indexed": false,
          "internalType": "address",
          "name": "logisticsPartner",
          "type": "address"
        }
      ],
      "name": "ProductDelivered",
      "type": "event"
    },
    {
      "inputs": [
        {
          "internalType": "uint256",
          "name": "_id",
          "type": "uint256"
        },
        {
          "internalType": "string",
          "name": "_name",
          "type": "string"
        },
        {
          "internalType": "uint256",
          "name": "_price",
          "type": "uint256"
        },
        {
          "internalType": "string",
          "name": "_manufacturerName",
          "type": "string"
        },
        {
          "internalType": "string",
          "name": "_manufacturerDetails",
          "type": "string"
        },
        {
          "internalType": "string",
          "name": "_longitude",
          "type": "string"
        },
        {
          "internalType": "string",
          "name": "_latitude",
          "type": "string"
        },
        {
          "internalType": "string",
          "name": "_category",
          "type": "string"
        }
      ],
      "name": "addProduct",
      "outputs": [],
      "stateMutability": "nonpayable",
      "type": "function"
    },
    {
      "inputs": [
        {
          "internalType": "uint256",
          "name": "_productId",
          "type": "uint256"
        },
        {
          "internalType": "string",
          "name": "_certificateAuthority",
          "type": "string"
        },
        {
          "internalType": "string",
          "name": "_digitalSignature",
          "type": "string"
        },
        {
          "internalType": "string",
          "name": "_certificateDocHash",
          "type": "string"
        }
      ],
      "name": "certifyProduct",
      "outputs": [],
      "stateMutability": "nonpayable",
      "type": "function"
    },
    {
      "inputs": [
        {
          "internalType": "uint256",
          "name": "_productId",
          "type": "uint256"
        }
      ],
      "name": "assignCourier",
      "outputs": [],
      "stateMutability": "nonpayable",
      "type": "function"
    },
    {
      "inputs": [
        {
          "internalType": "uint256",
          "name": "_productId",
          "type": "uint256"
        },
        {
          "internalType": "string",
          "name": "_deliveryStatus",
          "type": "string"
        }
      ],
      "name": "markAsDelivered",
      "outputs": [],
      "stateMutability": "nonpayable",
      "type": "function"
    },
    {
      "inputs": [
        {
          "internalType": "uint256",
          "name": "_productId",
          "type": "uint256"
        },
        {
          "internalType": "address",
          "name": "_customer",
          "type": "address"
        }
      ],
      "name": "assignToCustomer",
      "outputs": [],
      "stateMutability": "nonpayable",
      "type": "function"
    },
    {
      "inputs": [
        {
          "internalType": "uint256",
          "name": "_id",
          "type": "uint256"
        }
      ],
      "name": "getProduct",
      "outputs": [
        {
          "components": [
            {
              "internalType": "uint256",
              "name": "id",
              "type": "uint256"
            },
            {
              "internalType": "string",
              "name": "name",
              "type": "string"
            },
            {
              "internalType": "uint256",
              "name": "price",
              "type": "uint256"
            },
            {
              "internalType": "string",
              "name": "manufacturerName",
              "type": "string"
            },
            {
              "internalType": "string",
              "name": "manufacturerDetails",
              "type": "string"
            },
            {
              "internalType": "string",
              "name": "longitude",
              "type": "string"
            },
            {
              "internalType": "string",
              "name": "latitude",
              "type": "string"
            },
            {
              "internalType": "string",
              "name": "category",
              "type": "string"
            },
            {
              "internalType": "address",
              "name": "manufacturer",
              "type": "address"
            },
            {
              "internalType": "address",
              "name": "logisticsPartner",
              "type": "address"
            },
            {
              "internalType": "address",
              "name": "customer",
              "type": "address"
            },
            {
              "internalType": "string",
              "name": "deliveryStatus",
              "type": "string"
            },
            {
              "internalType": "string",
              "name": "certificateAuthority",
              "type": "string"
            },
            {
              "internalType": "string",
              "name": "digitalSignature",
              "type": "string"
            },
            {
              "internalType": "string",
              "name": "certificateDocHash",
              "type": "string"
            },
            {
              "internalType": "bool",
              "name": "isCertified",
              "type": "bool"
            }
          ],
          "internalType": "struct ProductNewTrack.Product",
          "name": "",
          "type": "tuple"
        }
      ],
      "stateMutability": "view",
      "type": "function",
      "constant": true
    },
    {
      "inputs": [],
      "name": "getAllProductIds",
      "outputs": [
        {
          "internalType": "uint256[]",
          "name": "",
          "type": "uint256[]"
        }
      ],
      "stateMutability": "view",
      "type": "function",
      "constant": true
    }
  ],
  "bytecode": "0x608060405234801561001057600080fd5b50612495806100206000396000f3fe608060405234801561001057600080fd5b506004361061007d5760003560e01c806354a553831161005b57806354a55383146100d6578063663c01af146100f25780637fbb289714610110578063b9db15b41461012c5761007d565b806308915fec146100825780630a45a4681461009e57806353719feb146100ba575b600080fd5b61009c60048036038101906100979190611696565b61015c565b005b6100b860048036038101906100b391906116d2565b61034e565b005b6100d460048036038101906100cf91906117d1565b610517565b005b6100f060048036038101906100eb9190611726565b61091c565b005b6100fa610ac5565b6040516101079190611f67565b60405180910390f35b61012a6004803603810190610125919061166d565b610b1d565b005b6101466004803603810190610141919061166d565b610d0c565b60405161015391906120c9565b60405180910390f35b60008060008481526020019081526020016000206000015414156101b5576040517f08c379a00000000000000000000000000000000000000000000000000000000081526004016101ac90611fa9565b60405180910390fd5b3373ffffffffffffffffffffffffffffffffffffffff1660008084815260200190815260200160002060080160009054906101000a900473ffffffffffffffffffffffffffffffffffffffff1673ffffffffffffffffffffffffffffffffffffffff1614610258576040517f08c379a000000000000000000000000000000000000000000000000000000000815260040161024f90611f89565b60405180910390fd5b6000806000848152602001908152602001600020600b01805461027a90612390565b905014156102bd576040517f08c379a00000000000000000000000000000000000000000000000000000000081526004016102b490612029565b60405180910390fd5b80600080848152602001908152602001600020600a0160006101000a81548173ffffffffffffffffffffffffffffffffffffffff021916908373ffffffffffffffffffffffffffffffffffffffff1602179055507fdcd866eb2eb01842d6640711672f624703e64d531e876b998c14df33c6dfc85882826040516103429291906120eb565b60405180910390a15050565b60008060008481526020019081526020016000206000015414156103a7576040517f08c379a000000000000000000000000000000000000000000000000000000000815260040161039e90611fa9565b60405180910390fd5b3373ffffffffffffffffffffffffffffffffffffffff1660008084815260200190815260200160002060090160009054906101000a900473ffffffffffffffffffffffffffffffffffffffff1673ffffffffffffffffffffffffffffffffffffffff161461044a576040517f08c379a000000000000000000000000000000000000000000000000000000000815260040161044190612089565b60405180910390fd5b6000806000848152602001908152602001600020600b01805461046c90612390565b9050146104ae576040517f08c379a00000000000000000000000000000000000000000000000000000000081526004016104a590611fe9565b60405180910390fd5b80600080848152602001908152602001600020600b0190805190602001906104d7929190611477565b507fb9a45c037b71fd1dcacdab5540bca4d87614bd70b4fc430f919cec227d1475b982823360405161050b93929190612114565b60405180910390a15050565b60008060008a8152602001908152602001600020600001541461056f576040517f08c379a000000000000000000000000000000000000000000000000000000000815260040161056690612009565b60405180910390fd5b6040518061020001604052808981526020018881526020018781526020018681526020018581526020018481526020018381526020018281526020013373ffffffffffffffffffffffffffffffffffffffff168152602001600073ffffffffffffffffffffffffffffffffffffffff168152602001600073ffffffffffffffffffffffffffffffffffffffff168152602001604051806020016040528060008152508152602001604051806020016040528060008152508152602001604051806020016040528060008152508152602001604051806020016040528060008152508152602001600015158152506000808a8152602001908152602001600020600082015181600001556020820151816001019080519060200190610694929190611477565b506040820151816002015560608201518160030190805190602001906106bb929190611477565b5060808201518160040190805190602001906106d8929190611477565b5060a08201518160050190805190602001906106f5929190611477565b5060c0820151816006019080519060200190610712929190611477565b5060e082015181600701908051906020019061072f929190611477565b506101008201518160080160006101000a81548173ffffffffffffffffffffffffffffffffffffffff021916908373ffffffffffffffffffffffffffffffffffffffff1602179055506101208201518160090160006101000a81548173ffffffffffffffffffffffffffffffffffffffff021916908373ffffffffffffffffffffffffffffffffffffffff16021790555061014082015181600a0160006101000a81548173ffffffffffffffffffffffffffffffffffffffff021916908373ffffffffffffffffffffffffffffffffffffffff16021790555061016082015181600b019080519060200190610825929190611477565b5061018082015181600c019080519060200190610843929190611477565b506101a082015181600d019080519060200190610861929190611477565b506101c082015181600e01908051906020019061087f929190611477565b506101e082015181600f0160006101000a81548160ff02191690831515021790555090505060018890806001815401808255809150506001900390600052602060002001600090919091909150557f49560a36f85c41bb0ace6904cd35970c16e59f186a8d63bc04e24c3746d46da4888888888888888860405161090a989796959493929190612197565b60405180910390a15050505050505050565b6000806000868152602001908152602001600020600001541415610975576040517f08c379a000000000000000000000000000000000000000000000000000000000815260040161096c90611fa9565b60405180910390fd5b600080858152602001908152602001600020600f0160009054906101000a900460ff16156109d8576040517f08c379a00000000000000000000000000000000000000000000000000000000081526004016109cf90612049565b60405180910390fd5b82600080868152602001908152602001600020600c019080519060200190610a01929190611477565b5081600080868152602001908152602001600020600d019080519060200190610a2b929190611477565b5080600080868152602001908152602001600020600e019080519060200190610a55929190611477565b506001600080868152602001908152602001600020600f0160006101000a81548160ff0219169083151502179055507f3e581853ab400edceb80c58b786c680e464fffa451fb3a82541f74400b20c87a848483604051610ab793929190612152565b60405180910390a150505050565b60606001805480602002602001604051908101604052809291908181526020018280548015610b1357602002820191906000526020600020905b815481526020019060010190808311610aff575b5050505050905090565b6000806000838152602001908152602001600020600001541415610b76576040517f08c379a0000000000000000000000000000000000000000000000000000000008152600401610b6d90611fa9565b60405180910390fd5b600080828152602001908152602001600020600f0160009054906101000a900460ff16610bd8576040517f08c379a0000000000000000000000000000000000000000000000000000000008152600401610bcf906120a9565b60405180910390fd5b600073ffffffffffffffffffffffffffffffffffffffff1660008083815260200190815260200160002060090160009054906101000a900473ffffffffffffffffffffffffffffffffffffffff1673ffffffffffffffffffffffffffffffffffffffff1614610c7c576040517f08c379a0000000000000000000000000000000000000000000000000000000008152600401610c7390612069565b60405180910390fd5b3360008083815260200190815260200160002060090160006101000a81548173ffffffffffffffffffffffffffffffffffffffff021916908373ffffffffffffffffffffffffffffffffffffffff1602179055507fc7f29f9c6ead206865112a60f0079e653c03500108e28ed5ce3a092634a0f01d8133604051610d019291906120eb565b60405180910390a150565b610d146114fd565b6000806000848152602001908152602001600020600001541415610d6d576040517f08c379a0000000000000000000000000000000000000000000000000000000008152600401610d6490611fc9565b60405180910390fd5b6000808381526020019081526020016000206040518061020001604052908160008201548152602001600182018054610da590612390565b80601f0160208091040260200160405190810160405280929190818152602001828054610dd190612390565b8015610e1e5780601f10610df357610100808354040283529160200191610e1e565b820191906000526020600020905b815481529060010190602001808311610e0157829003601f168201915b5050505050815260200160028201548152602001600382018054610e4190612390565b80601f0160208091040260200160405190810160405280929190818152602001828054610e6d90612390565b8015610eba5780601f10610e8f57610100808354040283529160200191610eba565b820191906000526020600020905b815481529060010190602001808311610e9d57829003601f168201915b50505050508152602001600482018054610ed390612390565b80601f0160208091040260200160405190810160405280929190818152602001828054610eff90612390565b8015610f4c5780601f10610f2157610100808354040283529160200191610f4c565b820191906000526020600020905b815481529060010190602001808311610f2f57829003601f168201915b50505050508152602001600582018054610f6590612390565b80601f0160208091040260200160405190810160405280929190818152602001828054610f9190612390565b8015610fde5780601f10610fb357610100808354040283529160200191610fde565b820191906000526020600020905b815481529060010190602001808311610fc157829003601f168201915b50505050508152602001600682018054610ff790612390565b80601f016020809104026020016040519081016040528092919081815260200182805461102390612390565b80156110705780601f1061104557610100808354040283529160200191611070565b820191906000526020600020905b81548152906001019060200180831161105357829003601f168201915b5050505050815260200160078201805461108990612390565b80601f01602080910402602001604051908101604052809291908181526020018280546110b590612390565b80156111025780601f106110d757610100808354040283529160200191611102565b820191906000526020600020905b8154815290600101906020018083116110e557829003601f168201915b505050505081526020016008820160009054906101000a900473ffffffffffffffffffffffffffffffffffffffff1673ffffffffffffffffffffffffffffffffffffffff1673ffffffffffffffffffffffffffffffffffffffff1681526020016009820160009054906101000a900473ffffffffffffffffffffffffffffffffffffffff1673ffffffffffffffffffffffffffffffffffffffff1673ffffffffffffffffffffffffffffffffffffffff168152602001600a820160009054906101000a900473ffffffffffffffffffffffffffffffffffffffff1673ffffffffffffffffffffffffffffffffffffffff1673ffffffffffffffffffffffffffffffffffffffff168152602001600b8201805461121d90612390565b80601f016020809104026020016040519081016040528092919081815260200182805461124990612390565b80156112965780601f1061126b57610100808354040283529160200191611296565b820191906000526020600020905b81548152906001019060200180831161127957829003601f168201915b50505050508152602001600c820180546112af90612390565b80601f01602080910402602001604051908101604052809291908181526020018280546112db90612390565b80156113285780601f106112fd57610100808354040283529160200191611328565b820191906000526020600020905b81548152906001019060200180831161130b57829003601f168201915b50505050508152602001600d8201805461134190612390565b80601f016020809104026020016040519081016040528092919081815260200182805461136d90612390565b80156113ba5780601f1061138f576101008083540402835291602001916113ba565b820191906000526020600020905b81548152906001019060200180831161139d57829003601f168201915b50505050508152602001600e820180546113d390612390565b80601f01602080910402602001604051908101604052809291908181526020018280546113ff90612390565b801561144c5780601f106114215761010080835404028352916020019161144c565b820191906000526020600020905b81548152906001019060200180831161142f57829003601f168201915b50505050508152602001600f820160009054906101000a900460ff1615151515815250509050919050565b82805461148390612390565b90600052602060002090601f0160209004810192826114a557600085556114ec565b82601f106114be57805160ff19168380011785556114ec565b828001600101855582156114ec579182015b828111156114eb5782518255916020019190600101906114d0565b5b5090506114f991906115be565b5090565b6040518061020001604052806000815260200160608152602001600081526020016060815260200160608152602001606081526020016060815260200160608152602001600073ffffffffffffffffffffffffffffffffffffffff168152602001600073ffffffffffffffffffffffffffffffffffffffff168152602001600073ffffffffffffffffffffffffffffffffffffffff168152602001606081526020016060815260200160608152602001606081526020016000151581525090565b5b808211156115d75760008160009055506001016115bf565b5090565b60006115ee6115e984612270565b61223f565b90508281526020810184848401111561160657600080fd5b61161184828561234e565b509392505050565b60008135905061162881612431565b92915050565b600082601f83011261163f57600080fd5b813561164f8482602086016115db565b91505092915050565b60008135905061166781612448565b92915050565b60006020828403121561167f57600080fd5b600061168d84828501611658565b91505092915050565b600080604083850312156116a957600080fd5b60006116b785828601611658565b92505060206116c885828601611619565b9150509250929050565b600080604083850312156116e557600080fd5b60006116f385828601611658565b925050602083013567ffffffffffffffff81111561171057600080fd5b61171c8582860161162e565b9150509250929050565b6000806000806080858703121561173c57600080fd5b600061174a87828801611658565b945050602085013567ffffffffffffffff81111561176757600080fd5b6117738782880161162e565b935050604085013567ffffffffffffffff81111561179057600080fd5b61179c8782880161162e565b925050606085013567ffffffffffffffff8111156117b957600080fd5b6117c58782880161162e565b91505092959194509250565b600080600080600080600080610100898b0312156117ee57600080fd5b60006117fc8b828c01611658565b985050602089013567ffffffffffffffff81111561181957600080fd5b6118258b828c0161162e565b97505060406118368b828c01611658565b965050606089013567ffffffffffffffff81111561185357600080fd5b61185f8b828c0161162e565b955050608089013567ffffffffffffffff81111561187c57600080fd5b6118888b828c0161162e565b94505060a089013567ffffffffffffffff8111156118a557600080fd5b6118b18b828c0161162e565b93505060c089013567ffffffffffffffff8111156118ce57600080fd5b6118da8b828c0161162e565b92505060e089013567ffffffffffffffff8111156118f757600080fd5b6119038b828c0161162e565b9150509295985092959890939650565b600061191f8383611f49565b60208301905092915050565b61193481612306565b82525050565b61194381612306565b82525050565b6000611954826122b0565b61195e81856122d3565b9350611969836122a0565b8060005b8381101561199a5781516119818882611913565b975061198c836122c6565b92505060018101905061196d565b5085935050505092915050565b6119b081612318565b82525050565b60006119c1826122bb565b6119cb81856122e4565b93506119db81856020860161235d565b6119e481612420565b840191505092915050565b60006119fa826122bb565b611a0481856122f5565b9350611a1481856020860161235d565b611a1d81612420565b840191505092915050565b6000611a35603b836122f5565b91507f4f6e6c7920746865206d616e7566616374757265722063616e2061737369676e60008301527f207468652070726f6475637420746f206120637573746f6d65722e00000000006020830152604082019050919050565b6000611a9b6017836122f5565b91507f50726f6475637420646f6573206e6f742065786973742e0000000000000000006000830152602082019050919050565b6000611adb6012836122f5565b91507f50726f64756374206e6f7420666f756e642e00000000000000000000000000006000830152602082019050919050565b6000611b1b6023836122f5565b91507f50726f647563742068617320616c7265616479206265656e2064656c6976657260008301527f65642e00000000000000000000000000000000000000000000000000000000006020830152604082019050919050565b6000611b816024836122f5565b91507f50726f647563742077697468207468697320494420616c72656164792065786960008301527f7374732e000000000000000000000000000000000000000000000000000000006020830152604082019050919050565b6000611be76037836122f5565b91507f50726f64756374206d7573742062652064656c697665726564206265666f726560008301527f2061737369676e696e6720746f20637573746f6d65722e0000000000000000006020830152604082019050919050565b6000611c4d601d836122f5565b91507f50726f6475637420697320616c7265616479206365727469666965642e0000006000830152602082019050919050565b6000611c8d6030836122f5565b91507f50726f6475637420616c72656164792061737369676e656420746f2061206c6f60008301527f6769737469637320706172746e65722e000000000000000000000000000000006020830152604082019050919050565b6000611cf3603a836122f5565b91507f4f6e6c79207468652061737369676e6564206c6f67697374696373207061727460008301527f6e65722063616e206d61726b2061732064656c6976657265642e0000000000006020830152604082019050919050565b6000611d596035836122f5565b91507f50726f64756374206d75737420626520636572746966696564206265666f726560008301527f2061737369676e696e67206120636f75726965722e00000000000000000000006020830152604082019050919050565b600061020083016000830151611dcb6000860182611f49565b5060208301518482036020860152611de382826119b6565b9150506040830151611df86040860182611f49565b5060608301518482036060860152611e1082826119b6565b91505060808301518482036080860152611e2a82826119b6565b91505060a083015184820360a0860152611e4482826119b6565b91505060c083015184820360c0860152611e5e82826119b6565b91505060e083015184820360e0860152611e7882826119b6565b915050610100830151611e8f61010086018261192b565b50610120830151611ea461012086018261192b565b50610140830151611eb961014086018261192b565b50610160830151848203610160860152611ed382826119b6565b915050610180830151848203610180860152611eef82826119b6565b9150506101a08301518482036101a0860152611f0b82826119b6565b9150506101c08301518482036101c0860152611f2782826119b6565b9150506101e0830151611f3e6101e08601826119a7565b508091505092915050565b611f5281612344565b82525050565b611f6181612344565b82525050565b60006020820190508181036000830152611f818184611949565b905092915050565b60006020820190508181036000830152611fa281611a28565b9050919050565b60006020820190508181036000830152611fc281611a8e565b9050919050565b60006020820190508181036000830152611fe281611ace565b9050919050565b6000602082019050818103600083015261200281611b0e565b9050919050565b6000602082019050818103600083015261202281611b74565b9050919050565b6000602082019050818103600083015261204281611bda565b9050919050565b6000602082019050818103600083015261206281611c40565b9050919050565b6000602082019050818103600083015261208281611c80565b9050919050565b600060208201905081810360008301526120a281611ce6565b9050919050565b600060208201905081810360008301526120c281611d4c565b9050919050565b600060208201905081810360008301526120e38184611db2565b905092915050565b60006040820190506121006000830185611f58565b61210d602083018461193a565b9392505050565b60006060820190506121296000830186611f58565b818103602083015261213b81856119ef565b905061214a604083018461193a565b949350505050565b60006060820190506121676000830186611f58565b818103602083015261217981856119ef565b9050818103604083015261218d81846119ef565b9050949350505050565b6000610100820190506121ad600083018b611f58565b81810360208301526121bf818a6119ef565b90506121ce6040830189611f58565b81810360608301526121e081886119ef565b905081810360808301526121f481876119ef565b905081810360a083015261220881866119ef565b905081810360c083015261221c81856119ef565b905081810360e083015261223081846119ef565b90509998505050505050505050565b6000604051905081810181811067ffffffffffffffff82111715612266576122656123f1565b5b8060405250919050565b600067ffffffffffffffff82111561228b5761228a6123f1565b5b601f19601f8301169050602081019050919050565b6000819050602082019050919050565b600081519050919050565b600081519050919050565b6000602082019050919050565b600082825260208201905092915050565b600082825260208201905092915050565b600082825260208201905092915050565b600061231182612324565b9050919050565b60008115159050919050565b600073ffffffffffffffffffffffffffffffffffffffff82169050919050565b6000819050919050565b82818337600083830152505050565b60005b8381101561237b578082015181840152602081019050612360565b8381111561238a576000848401525b50505050565b600060028204905060018216806123a857607f821691505b602082108114156123bc576123bb6123c2565b5b50919050565b7f4e487b7100000000000000000000000000000000000000000000000000000000600052602260045260246000fd5b7f4e487b7100000000000000000000000000000000000000000000000000000000600052604160045260246000fd5b6000601f19601f8301169050919050565b61243a81612306565b811461244557600080fd5b50565b61245181612344565b811461245c57600080fd5b5056fea2646970667358221220886553149fc032bdfe2823d015ee6e3626dccb60387c3b393f354fca7ea18f8a64736f6c63430008000033",
  "immutableReferences": {},
  "source": "// SPDX-License-Identifier: MIT\npragma solidity ^0.8.0;\n\ncontract ProductNewTrack {\n    // Define a struct for the Product\n    struct Product {\n        uint256 id;\n        string name;\n        uint256 price;\n        string manufacturerName;\n        string manufacturerDetails;\n        string longitude;\n        string latitude;\n        string category;\n        address manufacturer; // Store the address of the manufacturer\n        address logisticsPartner; // Store the address of the logistics partner\n        address customer; // Store the address of the customer (final receiver)\n        string deliveryStatus; // Track the delivery status (Wholesaler, Retailer, Customer)\n        string certificateAuthority; // Name of the certificate provider\n        string digitalSignature; // Digital signature of CA\n        string certificateDocHash; // IPFS hash of the certificate document\n        bool isCertified; // Certification status\n    }\n\n    // Mapping to store products by their ID\n    mapping(uint256 => Product) private products;\n\n    // Array to store all product IDs\n    uint256[] private productIds;\n\n    // Events\n    event ProductAdded(\n        uint256 productId,\n        string name,\n        uint256 price,\n        string manufacturerName,\n        string manufacturerDetails,\n        string longitude,\n        string latitude,\n        string category\n    );\n\n    event ProductCertified(\n        uint256 productId,\n        string certificateAuthority,\n        string certificateDocHash\n    );\n\n    event ProductAssignedToCourier(\n        uint256 productId,\n        address logisticsPartner\n    );\n\n    event ProductDelivered(\n        uint256 productId,\n        string deliveryStatus,\n        address logisticsPartner\n    );\n\n    event ProductAssignedToCustomer(\n        uint256 productId,\n        address customer\n    );\n\n    // Function to add a product\n    function addProduct(\n        uint256 _id,\n        string memory _name,\n        uint256 _price,\n        string memory _manufacturerName,\n        string memory _manufacturerDetails,\n        string memory _longitude,\n        string memory _latitude,\n        string memory _category\n    ) public {\n        // Ensure the product does not already exist\n        require(products[_id].id == 0, \"Product with this ID already exists.\");\n\n        // Add the product to the mapping\n        products[_id] = Product(\n            _id,\n            _name,\n            _price,\n            _manufacturerName,\n            _manufacturerDetails,\n            _longitude,\n            _latitude,\n            _category,\n            msg.sender, // Manufacturer is the creator of the product\n            address(0), // Initially, no logistics partner\n            address(0), // Initially, no customer\n            \"\", // Initially, no delivery status\n            \"\", // No certificate authority\n            \"\", // No digital signature\n            \"\", // No certificate document hash\n            false // Not certified initially\n        );\n\n        // Add product ID to the list of products\n        productIds.push(_id);\n\n        // Emit event to log the product addition\n        emit ProductAdded(\n            _id,\n            _name,\n            _price,\n            _manufacturerName,\n            _manufacturerDetails,\n            _longitude,\n            _latitude,\n            _category\n        );\n    }\n\n    // Function to certify a product\n    function certifyProduct(\n        uint256 _productId,\n        string memory _certificateAuthority,\n        string memory _digitalSignature,\n        string memory _certificateDocHash\n    ) public {\n        // Ensure the product exists\n        require(products[_productId].id != 0, \"Product does not exist.\");\n\n        // Ensure the product is not already certified\n        require(!products[_productId].isCertified, \"Product is already certified.\");\n\n        // Certify the product\n        products[_productId].certificateAuthority = _certificateAuthority;\n        products[_productId].digitalSignature = _digitalSignature;\n        products[_productId].certificateDocHash = _certificateDocHash;\n        products[_productId].isCertified = true;\n\n        // Emit event to log the certification\n        emit ProductCertified(_productId, _certificateAuthority, _certificateDocHash);\n    }\n\n    // Function for logistics partner to assign themselves to a product\n    function assignCourier(uint256 _productId) public {\n        // Ensure the product exists\n        require(products[_productId].id != 0, \"Product does not exist.\");\n\n        // Ensure the product is certified\n        require(products[_productId].isCertified, \"Product must be certified before assigning a courier.\");\n\n        // Ensure the product has not already been assigned to a logistics partner\n        require(products[_productId].logisticsPartner == address(0), \"Product already assigned to a logistics partner.\");\n\n        // Assign the logistics partner (the caller) to the product\n        products[_productId].logisticsPartner = msg.sender;\n\n        // Emit event to log the assignment of the logistics partner\n        emit ProductAssignedToCourier(_productId, msg.sender);\n    }\n\n    // Function for logistics partner to mark the product as delivered\n    function markAsDelivered(uint256 _productId, string memory _deliveryStatus) public {\n        // Ensure the product exists\n        require(products[_productId].id != 0, \"Product does not exist.\");\n\n        // Ensure the caller is the logistics partner for this product\n        require(products[_productId].logisticsPartner == msg.sender, \"Only the assigned logistics partner can mark as delivered.\");\n\n        // Ensure the product has not already been delivered\n        require(bytes(products[_productId].deliveryStatus).length == 0, \"Product has already been delivered.\");\n\n        // Update the delivery status\n        products[_productId].deliveryStatus = _deliveryStatus;\n\n        // Emit event to log the delivery\n        emit ProductDelivered(_productId, _deliveryStatus, msg.sender);\n    }\n\n    // Function to assign a product to the customer\n    function assignToCustomer(uint256 _productId, address _customer) public {\n        // Ensure the product exists\n        require(products[_productId].id != 0, \"Product does not exist.\");\n\n        // Ensure the caller is the manufacturer of the product\n        require(products[_productId].manufacturer == msg.sender, \"Only the manufacturer can assign the product to a customer.\");\n\n        // Ensure the product has been delivered\n        require(bytes(products[_productId].deliveryStatus).length != 0, \"Product must be delivered before assigning to customer.\");\n\n        // Assign the customer to the product\n        products[_productId].customer = _customer;\n\n        // Emit event to log the assignment to customer\n        emit ProductAssignedToCustomer(_productId, _customer);\n    }\n\n    // Function to get a product by ID\n    function getProduct(uint256 _id) public view returns (Product memory) {\n        // Ensure the product exists\n        require(products[_id].id != 0, \"Product not found.\");\n\n        // Return the entire product struct\n        return products[_id];\n    }\n\n    // Function to get all product IDs\n    function getAllProductIds() public view returns (uint256[] memory) {\n        return productIds;\n    }\n}\n",
  "sourcePath": "D:\\transparent-supply-chain\\transparent-supply-chain-main\\contracts\\ProductNewTrack.sol",
  "compiler": {
    "name": "solc",
    "version": "0.8.0+commit.c7dfd78e.Emscripten.clang"
  },
  "schemaVersion": "3.4.16",
  "updatedAt": "2024-12-26T12:26:53.269Z",
  "networkType": "ethereum",
  "devdoc": {
    "kind": "dev",
    "methods": {},
    "version": 1
  },
  "userdoc": {
    "kind": "user",
    "methods": {},
    "version": 1
  }
}