{
  "contractName": "ProductTr",
  "abi": [
    {
      "anonymous": false,
      "inputs": [
        {
          "indexed": false,
          "internalType": "uint256",
          "name": "productId",
          "type": "uint256"
        },
        {
          "indexed": false,
          "internalType": "string",
          "name": "location",
          "type": "string"
        },
        {
          "indexed": false,
          "internalType": "string",
          "name": "longitude",
          "type": "string"
        },
        {
          "indexed": false,
          "internalType": "string",
          "name": "latitude",
          "type": "string"
        },
        {
          "indexed": false,
          "internalType": "uint256",
          "name": "checkInTime",
          "type": "uint256"
        },
        {
          "indexed": false,
          "internalType": "uint256",
          "name": "checkOutTime",
          "type": "uint256"
        }
      ],
      "name": "CheckpointAdded",
      "type": "event"
    },
    {
      "anonymous": false,
      "inputs": [
        {
          "indexed": false,
          "internalType": "uint256",
          "name": "productId",
          "type": "uint256"
        },
        {
          "indexed": false,
          "internalType": "string",
          "name": "name",
          "type": "string"
        },
        {
          "indexed": false,
          "internalType": "uint256",
          "name": "price",
          "type": "uint256"
        },
        {
          "indexed": false,
          "internalType": "string",
          "name": "manufacturerName",
          "type": "string"
        },
        {
          "indexed": false,
          "internalType": "string",
          "name": "manufacturerDetails",
          "type": "string"
        },
        {
          "indexed": false,
          "internalType": "string",
          "name": "longitude",
          "type": "string"
        },
        {
          "indexed": false,
          "internalType": "string",
          "name": "latitude",
          "type": "string"
        },
        {
          "indexed": false,
          "internalType": "string",
          "name": "category",
          "type": "string"
        }
      ],
      "name": "ProductAdded",
      "type": "event"
    },
    {
      "anonymous": false,
      "inputs": [
        {
          "indexed": false,
          "internalType": "uint256",
          "name": "productId",
          "type": "uint256"
        },
        {
          "indexed": false,
          "internalType": "address",
          "name": "logisticsPartner",
          "type": "address"
        }
      ],
      "name": "ProductAssignedToCourier",
      "type": "event"
    },
    {
      "anonymous": false,
      "inputs": [
        {
          "indexed": false,
          "internalType": "uint256",
          "name": "productId",
          "type": "uint256"
        },
        {
          "indexed": false,
          "internalType": "address",
          "name": "customer",
          "type": "address"
        }
      ],
      "name": "ProductAssignedToCustomer",
      "type": "event"
    },
    {
      "anonymous": false,
      "inputs": [
        {
          "indexed": false,
          "internalType": "uint256",
          "name": "productId",
          "type": "uint256"
        },
        {
          "indexed": false,
          "internalType": "string",
          "name": "certificateAuthority",
          "type": "string"
        },
        {
          "indexed": false,
          "internalType": "string",
          "name": "certificateDocHash",
          "type": "string"
        }
      ],
      "name": "ProductCertified",
      "type": "event"
    },
    {
      "anonymous": false,
      "inputs": [
        {
          "indexed": false,
          "internalType": "uint256",
          "name": "productId",
          "type": "uint256"
        },
        {
          "indexed": false,
          "internalType": "string",
          "name": "deliveryStatus",
          "type": "string"
        },
        {
          "indexed": false,
          "internalType": "address",
          "name": "logisticsPartner",
          "type": "address"
        }
      ],
      "name": "ProductDelivered",
      "type": "event"
    },
    {
      "inputs": [
        {
          "internalType": "uint256",
          "name": "_id",
          "type": "uint256"
        },
        {
          "internalType": "string",
          "name": "_name",
          "type": "string"
        },
        {
          "internalType": "uint256",
          "name": "_price",
          "type": "uint256"
        },
        {
          "internalType": "string",
          "name": "_manufacturerName",
          "type": "string"
        },
        {
          "internalType": "string",
          "name": "_manufacturerDetails",
          "type": "string"
        },
        {
          "internalType": "string",
          "name": "_longitude",
          "type": "string"
        },
        {
          "internalType": "string",
          "name": "_latitude",
          "type": "string"
        },
        {
          "internalType": "string",
          "name": "_category",
          "type": "string"
        }
      ],
      "name": "addProduct",
      "outputs": [],
      "stateMutability": "nonpayable",
      "type": "function"
    },
    {
      "inputs": [
        {
          "internalType": "uint256",
          "name": "_productId",
          "type": "uint256"
        },
        {
          "internalType": "string",
          "name": "_certificateAuthority",
          "type": "string"
        },
        {
          "internalType": "string",
          "name": "_digitalSignature",
          "type": "string"
        },
        {
          "internalType": "string",
          "name": "_certificateDocHash",
          "type": "string"
        }
      ],
      "name": "certifyProduct",
      "outputs": [],
      "stateMutability": "nonpayable",
      "type": "function"
    },
    {
      "inputs": [
        {
          "internalType": "uint256",
          "name": "_productId",
          "type": "uint256"
        }
      ],
      "name": "assignCourier",
      "outputs": [],
      "stateMutability": "nonpayable",
      "type": "function"
    },
    {
      "inputs": [
        {
          "internalType": "uint256",
          "name": "_productId",
          "type": "uint256"
        },
        {
          "internalType": "string",
          "name": "_location",
          "type": "string"
        },
        {
          "internalType": "string",
          "name": "_longitude",
          "type": "string"
        },
        {
          "internalType": "string",
          "name": "_latitude",
          "type": "string"
        },
        {
          "internalType": "uint256",
          "name": "_checkInTime",
          "type": "uint256"
        },
        {
          "internalType": "uint256",
          "name": "_checkOutTime",
          "type": "uint256"
        }
      ],
      "name": "addCheckpoint",
      "outputs": [],
      "stateMutability": "nonpayable",
      "type": "function"
    },
    {
      "inputs": [
        {
          "internalType": "uint256",
          "name": "_productId",
          "type": "uint256"
        },
        {
          "internalType": "string",
          "name": "_deliveryStatus",
          "type": "string"
        }
      ],
      "name": "markAsDelivered",
      "outputs": [],
      "stateMutability": "nonpayable",
      "type": "function"
    },
    {
      "inputs": [
        {
          "internalType": "uint256",
          "name": "_productId",
          "type": "uint256"
        },
        {
          "internalType": "address",
          "name": "_customer",
          "type": "address"
        }
      ],
      "name": "assignToCustomer",
      "outputs": [],
      "stateMutability": "nonpayable",
      "type": "function"
    },
    {
      "inputs": [
        {
          "internalType": "uint256",
          "name": "_id",
          "type": "uint256"
        }
      ],
      "name": "getProduct",
      "outputs": [
        {
          "components": [
            {
              "internalType": "uint256",
              "name": "id",
              "type": "uint256"
            },
            {
              "internalType": "string",
              "name": "name",
              "type": "string"
            },
            {
              "internalType": "uint256",
              "name": "price",
              "type": "uint256"
            },
            {
              "internalType": "string",
              "name": "manufacturerName",
              "type": "string"
            },
            {
              "internalType": "string",
              "name": "manufacturerDetails",
              "type": "string"
            },
            {
              "internalType": "string",
              "name": "longitude",
              "type": "string"
            },
            {
              "internalType": "string",
              "name": "latitude",
              "type": "string"
            },
            {
              "internalType": "string",
              "name": "category",
              "type": "string"
            },
            {
              "internalType": "address",
              "name": "manufacturer",
              "type": "address"
            },
            {
              "internalType": "address",
              "name": "logisticsPartner",
              "type": "address"
            },
            {
              "internalType": "address",
              "name": "customer",
              "type": "address"
            },
            {
              "internalType": "string",
              "name": "deliveryStatus",
              "type": "string"
            },
            {
              "internalType": "string",
              "name": "certificateAuthority",
              "type": "string"
            },
            {
              "internalType": "string",
              "name": "digitalSignature",
              "type": "string"
            },
            {
              "internalType": "string",
              "name": "certificateDocHash",
              "type": "string"
            },
            {
              "internalType": "bool",
              "name": "isCertified",
              "type": "bool"
            },
            {
              "components": [
                {
                  "internalType": "string",
                  "name": "location",
                  "type": "string"
                },
                {
                  "internalType": "string",
                  "name": "longitude",
                  "type": "string"
                },
                {
                  "internalType": "string",
                  "name": "latitude",
                  "type": "string"
                },
                {
                  "internalType": "uint256",
                  "name": "checkInTime",
                  "type": "uint256"
                },
                {
                  "internalType": "uint256",
                  "name": "checkOutTime",
                  "type": "uint256"
                }
              ],
              "internalType": "struct ProductTr.Checkpoint[]",
              "name": "checkpoints",
              "type": "tuple[]"
            }
          ],
          "internalType": "struct ProductTr.Product",
          "name": "",
          "type": "tuple"
        }
      ],
      "stateMutability": "view",
      "type": "function",
      "constant": true
    },
    {
      "inputs": [],
      "name": "getAllProductIds",
      "outputs": [
        {
          "internalType": "uint256[]",
          "name": "",
          "type": "uint256[]"
        }
      ],
      "stateMutability": "view",
      "type": "function",
      "constant": true
    },
    {
      "inputs": [
        {
          "internalType": "uint256",
          "name": "_productId",
          "type": "uint256"
        }
      ],
      "name": "getCheckpoints",
      "outputs": [
        {
          "internalType": "string[]",
          "name": "locations",
          "type": "string[]"
        },
        {
          "internalType": "string[]",
          "name": "longitudes",
          "type": "string[]"
        },
        {
          "internalType": "string[]",
          "name": "latitudes",
          "type": "string[]"
        },
        {
          "internalType": "uint256[]",
          "name": "checkInTimes",
          "type": "uint256[]"
        },
        {
          "internalType": "uint256[]",
          "name": "checkOutTimes",
          "type": "uint256[]"
        }
      ],
      "stateMutability": "view",
      "type": "function",
      "constant": true
    }
  ],
  "bytecode": "0x608060405234801561001057600080fd5b506133c1806100206000396000f3fe608060405234801561001057600080fd5b50600436106100925760003560e01c806354a553831161006657806354a5538314610107578063663c01af146101235780636897591c146101415780637fbb289714610175578063b9db15b41461019157610092565b8062ab27a51461009757806308915fec146100b35780630a45a468146100cf57806353719feb146100eb575b600080fd5b6100b160048036038101906100ac919061221e565b6101c1565b005b6100cd60048036038101906100c891906120e3565b6103d8565b005b6100e960048036038101906100e4919061211f565b6105ca565b005b610105600480360381019061010091906122ef565b610793565b005b610121600480360381019061011c9190612173565b610aaa565b005b61012b610c53565b6040516101389190612d13565b60405180910390f35b61015b600480360381019061015691906120ba565b610cab565b60405161016c959493929190612c9d565b60405180910390f35b61018f600480360381019061018a91906120ba565b61133a565b005b6101ab60048036038101906101a691906120ba565b611529565b6040516101b89190612e95565b60405180910390f35b600080600088815260200190815260200160002060000154141561021a576040517f08c379a000000000000000000000000000000000000000000000000000000000815260040161021190612d55565b60405180910390fd5b3373ffffffffffffffffffffffffffffffffffffffff1660008088815260200190815260200160002060090160009054906101000a900473ffffffffffffffffffffffffffffffffffffffff1673ffffffffffffffffffffffffffffffffffffffff16146102bd576040517f08c379a00000000000000000000000000000000000000000000000000000000081526004016102b490612df5565b60405180910390fd5b6000808781526020019081526020016000206010016040518060a00160405280878152602001868152602001858152602001848152602001838152509080600181540180825580915050600190039060005260206000209060050201600090919091909150600082015181600001908051906020019061033e929190611ebd565b50602082015181600101908051906020019061035b929190611ebd565b506040820151816002019080519060200190610378929190611ebd565b50606082015181600301556080820151816004015550507f3f655e10613e949cf401464bec1b8e8925a64813676ff318d9230d42b8eb6c5e8686868686866040516103c896959493929190612f63565b60405180910390a1505050505050565b6000806000848152602001908152602001600020600001541415610431576040517f08c379a000000000000000000000000000000000000000000000000000000000815260040161042890612d55565b60405180910390fd5b3373ffffffffffffffffffffffffffffffffffffffff1660008084815260200190815260200160002060080160009054906101000a900473ffffffffffffffffffffffffffffffffffffffff1673ffffffffffffffffffffffffffffffffffffffff16146104d4576040517f08c379a00000000000000000000000000000000000000000000000000000000081526004016104cb90612d35565b60405180910390fd5b6000806000848152602001908152602001600020600b0180546104f690613244565b90501415610539576040517f08c379a000000000000000000000000000000000000000000000000000000000815260040161053090612dd5565b60405180910390fd5b80600080848152602001908152602001600020600a0160006101000a81548173ffffffffffffffffffffffffffffffffffffffff021916908373ffffffffffffffffffffffffffffffffffffffff1602179055507fdcd866eb2eb01842d6640711672f624703e64d531e876b998c14df33c6dfc85882826040516105be929190612eb7565b60405180910390a15050565b6000806000848152602001908152602001600020600001541415610623576040517f08c379a000000000000000000000000000000000000000000000000000000000815260040161061a90612d55565b60405180910390fd5b3373ffffffffffffffffffffffffffffffffffffffff1660008084815260200190815260200160002060090160009054906101000a900473ffffffffffffffffffffffffffffffffffffffff1673ffffffffffffffffffffffffffffffffffffffff16146106c6576040517f08c379a00000000000000000000000000000000000000000000000000000000081526004016106bd90612e55565b60405180910390fd5b6000806000848152602001908152602001600020600b0180546106e890613244565b90501461072a576040517f08c379a000000000000000000000000000000000000000000000000000000000815260040161072190612d95565b60405180910390fd5b80600080848152602001908152602001600020600b019080519060200190610753929190611ebd565b507fb9a45c037b71fd1dcacdab5540bca4d87614bd70b4fc430f919cec227d1475b982823360405161078793929190612ee0565b60405180910390a15050565b60008060008a815260200190815260200160002060000154146107eb576040517f08c379a00000000000000000000000000000000000000000000000000000000081526004016107e290612db5565b60405180910390fd5b60008060008a8152602001908152602001600020905088816000018190555087816001019080519060200190610822929190611ebd565b5086816002018190555085816003019080519060200190610844929190611ebd565b508481600401908051906020019061085d929190611ebd565b5083816005019080519060200190610876929190611ebd565b508281600601908051906020019061088f929190611ebd565b50818160070190805190602001906108a8929190611ebd565b50338160080160006101000a81548173ffffffffffffffffffffffffffffffffffffffff021916908373ffffffffffffffffffffffffffffffffffffffff16021790555060008160090160006101000a81548173ffffffffffffffffffffffffffffffffffffffff021916908373ffffffffffffffffffffffffffffffffffffffff160217905550600081600a0160006101000a81548173ffffffffffffffffffffffffffffffffffffffff021916908373ffffffffffffffffffffffffffffffffffffffff1602179055506040518060200160405280600081525081600b01908051906020019061099b929190611ebd565b506040518060200160405280600081525081600c0190805190602001906109c3929190611ebd565b506040518060200160405280600081525081600d0190805190602001906109eb929190611ebd565b506040518060200160405280600081525081600e019080519060200190610a13929190611ebd565b50600081600f0160006101000a81548160ff02191690831515021790555060018990806001815401808255809150506001900390600052602060002001600090919091909150557f49560a36f85c41bb0ace6904cd35970c16e59f186a8d63bc04e24c3746d46da48989898989898989604051610a97989796959493929190612fd9565b60405180910390a1505050505050505050565b6000806000868152602001908152602001600020600001541415610b03576040517f08c379a0000000000000000000000000000000000000000000000000000000008152600401610afa90612d55565b60405180910390fd5b600080858152602001908152602001600020600f0160009054906101000a900460ff1615610b66576040517f08c379a0000000000000000000000000000000000000000000000000000000008152600401610b5d90612e15565b60405180910390fd5b82600080868152602001908152602001600020600c019080519060200190610b8f929190611ebd565b5081600080868152602001908152602001600020600d019080519060200190610bb9929190611ebd565b5080600080868152602001908152602001600020600e019080519060200190610be3929190611ebd565b506001600080868152602001908152602001600020600f0160006101000a81548160ff0219169083151502179055507f3e581853ab400edceb80c58b786c680e464fffa451fb3a82541f74400b20c87a848483604051610c4593929190612f1e565b60405180910390a150505050565b60606001805480602002602001604051908101604052809291908181526020018280548015610ca157602002820191906000526020600020905b815481526020019060010190808311610c8d575b5050505050905090565b60608060608060606000806000888152602001908152602001600020600001541415610d0c576040517f08c379a0000000000000000000000000000000000000000000000000000000008152600401610d0390612d55565b60405180910390fd5b60008060008881526020019081526020016000206010018054905090508067ffffffffffffffff811115610d69577f4e487b7100000000000000000000000000000000000000000000000000000000600052604160045260246000fd5b604051908082528060200260200182016040528015610d9c57816020015b6060815260200190600190039081610d875790505b5095508067ffffffffffffffff811115610ddf577f4e487b7100000000000000000000000000000000000000000000000000000000600052604160045260246000fd5b604051908082528060200260200182016040528015610e1257816020015b6060815260200190600190039081610dfd5790505b5094508067ffffffffffffffff811115610e55577f4e487b7100000000000000000000000000000000000000000000000000000000600052604160045260246000fd5b604051908082528060200260200182016040528015610e8857816020015b6060815260200190600190039081610e735790505b5093508067ffffffffffffffff811115610ecb577f4e487b7100000000000000000000000000000000000000000000000000000000600052604160045260246000fd5b604051908082528060200260200182016040528015610ef95781602001602082028036833780820191505090505b5092508067ffffffffffffffff811115610f3c577f4e487b7100000000000000000000000000000000000000000000000000000000600052604160045260246000fd5b604051908082528060200260200182016040528015610f6a5781602001602082028036833780820191505090505b50915060005b8181101561132f5760008060008a81526020019081526020016000206010018281548110610fc7577f4e487b7100000000000000000000000000000000000000000000000000000000600052603260045260246000fd5b90600052602060002090600502016040518060a0016040529081600082018054610ff090613244565b80601f016020809104026020016040519081016040528092919081815260200182805461101c90613244565b80156110695780601f1061103e57610100808354040283529160200191611069565b820191906000526020600020905b81548152906001019060200180831161104c57829003601f168201915b5050505050815260200160018201805461108290613244565b80601f01602080910402602001604051908101604052809291908181526020018280546110ae90613244565b80156110fb5780601f106110d0576101008083540402835291602001916110fb565b820191906000526020600020905b8154815290600101906020018083116110de57829003601f168201915b5050505050815260200160028201805461111490613244565b80601f016020809104026020016040519081016040528092919081815260200182805461114090613244565b801561118d5780601f106111625761010080835404028352916020019161118d565b820191906000526020600020905b81548152906001019060200180831161117057829003601f168201915b5050505050815260200160038201548152602001600482015481525050905080600001518883815181106111ea577f4e487b7100000000000000000000000000000000000000000000000000000000600052603260045260246000fd5b60200260200101819052508060200151878381518110611233577f4e487b7100000000000000000000000000000000000000000000000000000000600052603260045260246000fd5b6020026020010181905250806040015186838151811061127c577f4e487b7100000000000000000000000000000000000000000000000000000000600052603260045260246000fd5b602002602001018190525080606001518583815181106112c5577f4e487b7100000000000000000000000000000000000000000000000000000000600052603260045260246000fd5b602002602001018181525050806080015184838151811061130f577f4e487b7100000000000000000000000000000000000000000000000000000000600052603260045260246000fd5b60200260200101818152505050808061132790613276565b915050610f70565b505091939590929450565b6000806000838152602001908152602001600020600001541415611393576040517f08c379a000000000000000000000000000000000000000000000000000000000815260040161138a90612d55565b60405180910390fd5b600080828152602001908152602001600020600f0160009054906101000a900460ff166113f5576040517f08c379a00000000000000000000000000000000000000000000000000000000081526004016113ec90612e75565b60405180910390fd5b600073ffffffffffffffffffffffffffffffffffffffff1660008083815260200190815260200160002060090160009054906101000a900473ffffffffffffffffffffffffffffffffffffffff1673ffffffffffffffffffffffffffffffffffffffff1614611499576040517f08c379a000000000000000000000000000000000000000000000000000000000815260040161149090612e35565b60405180910390fd5b3360008083815260200190815260200160002060090160006101000a81548173ffffffffffffffffffffffffffffffffffffffff021916908373ffffffffffffffffffffffffffffffffffffffff1602179055507fc7f29f9c6ead206865112a60f0079e653c03500108e28ed5ce3a092634a0f01d813360405161151e929190612eb7565b60405180910390a150565b611531611f43565b600080600084815260200190815260200160002060000154141561158a576040517f08c379a000000000000000000000000000000000000000000000000000000000815260040161158190612d75565b60405180910390fd5b60008083815260200190815260200160002060405180610220016040529081600082015481526020016001820180546115c290613244565b80601f01602080910402602001604051908101604052809291908181526020018280546115ee90613244565b801561163b5780601f106116105761010080835404028352916020019161163b565b820191906000526020600020905b81548152906001019060200180831161161e57829003601f168201915b505050505081526020016002820154815260200160038201805461165e90613244565b80601f016020809104026020016040519081016040528092919081815260200182805461168a90613244565b80156116d75780601f106116ac576101008083540402835291602001916116d7565b820191906000526020600020905b8154815290600101906020018083116116ba57829003601f168201915b505050505081526020016004820180546116f090613244565b80601f016020809104026020016040519081016040528092919081815260200182805461171c90613244565b80156117695780601f1061173e57610100808354040283529160200191611769565b820191906000526020600020905b81548152906001019060200180831161174c57829003601f168201915b5050505050815260200160058201805461178290613244565b80601f01602080910402602001604051908101604052809291908181526020018280546117ae90613244565b80156117fb5780601f106117d0576101008083540402835291602001916117fb565b820191906000526020600020905b8154815290600101906020018083116117de57829003601f168201915b5050505050815260200160068201805461181490613244565b80601f016020809104026020016040519081016040528092919081815260200182805461184090613244565b801561188d5780601f106118625761010080835404028352916020019161188d565b820191906000526020600020905b81548152906001019060200180831161187057829003601f168201915b505050505081526020016007820180546118a690613244565b80601f01602080910402602001604051908101604052809291908181526020018280546118d290613244565b801561191f5780601f106118f45761010080835404028352916020019161191f565b820191906000526020600020905b81548152906001019060200180831161190257829003601f168201915b505050505081526020016008820160009054906101000a900473ffffffffffffffffffffffffffffffffffffffff1673ffffffffffffffffffffffffffffffffffffffff1673ffffffffffffffffffffffffffffffffffffffff1681526020016009820160009054906101000a900473ffffffffffffffffffffffffffffffffffffffff1673ffffffffffffffffffffffffffffffffffffffff1673ffffffffffffffffffffffffffffffffffffffff168152602001600a820160009054906101000a900473ffffffffffffffffffffffffffffffffffffffff1673ffffffffffffffffffffffffffffffffffffffff1673ffffffffffffffffffffffffffffffffffffffff168152602001600b82018054611a3a90613244565b80601f0160208091040260200160405190810160405280929190818152602001828054611a6690613244565b8015611ab35780601f10611a8857610100808354040283529160200191611ab3565b820191906000526020600020905b815481529060010190602001808311611a9657829003601f168201915b50505050508152602001600c82018054611acc90613244565b80601f0160208091040260200160405190810160405280929190818152602001828054611af890613244565b8015611b455780601f10611b1a57610100808354040283529160200191611b45565b820191906000526020600020905b815481529060010190602001808311611b2857829003601f168201915b50505050508152602001600d82018054611b5e90613244565b80601f0160208091040260200160405190810160405280929190818152602001828054611b8a90613244565b8015611bd75780601f10611bac57610100808354040283529160200191611bd7565b820191906000526020600020905b815481529060010190602001808311611bba57829003601f168201915b50505050508152602001600e82018054611bf090613244565b80601f0160208091040260200160405190810160405280929190818152602001828054611c1c90613244565b8015611c695780601f10611c3e57610100808354040283529160200191611c69565b820191906000526020600020905b815481529060010190602001808311611c4c57829003601f168201915b50505050508152602001600f820160009054906101000a900460ff1615151515815260200160108201805480602002602001604051908101604052809291908181526020016000905b82821015611eae57838290600052602060002090600502016040518060a0016040529081600082018054611ce590613244565b80601f0160208091040260200160405190810160405280929190818152602001828054611d1190613244565b8015611d5e5780601f10611d3357610100808354040283529160200191611d5e565b820191906000526020600020905b815481529060010190602001808311611d4157829003601f168201915b50505050508152602001600182018054611d7790613244565b80601f0160208091040260200160405190810160405280929190818152602001828054611da390613244565b8015611df05780601f10611dc557610100808354040283529160200191611df0565b820191906000526020600020905b815481529060010190602001808311611dd357829003601f168201915b50505050508152602001600282018054611e0990613244565b80601f0160208091040260200160405190810160405280929190818152602001828054611e3590613244565b8015611e825780601f10611e5757610100808354040283529160200191611e82565b820191906000526020600020905b815481529060010190602001808311611e6557829003601f168201915b505050505081526020016003820154815260200160048201548152505081526020019060010190611cb2565b50505050815250509050919050565b828054611ec990613244565b90600052602060002090601f016020900481019282611eeb5760008555611f32565b82601f10611f0457805160ff1916838001178555611f32565b82800160010185558215611f32579182015b82811115611f31578251825591602001919060010190611f16565b5b509050611f3f919061200b565b5090565b6040518061022001604052806000815260200160608152602001600081526020016060815260200160608152602001606081526020016060815260200160608152602001600073ffffffffffffffffffffffffffffffffffffffff168152602001600073ffffffffffffffffffffffffffffffffffffffff168152602001600073ffffffffffffffffffffffffffffffffffffffff16815260200160608152602001606081526020016060815260200160608152602001600015158152602001606081525090565b5b8082111561202457600081600090555060010161200c565b5090565b600061203b612036846130b2565b613081565b90508281526020810184848401111561205357600080fd5b61205e848285613202565b509392505050565b6000813590506120758161335d565b92915050565b600082601f83011261208c57600080fd5b813561209c848260208601612028565b91505092915050565b6000813590506120b481613374565b92915050565b6000602082840312156120cc57600080fd5b60006120da848285016120a5565b91505092915050565b600080604083850312156120f657600080fd5b6000612104858286016120a5565b925050602061211585828601612066565b9150509250929050565b6000806040838503121561213257600080fd5b6000612140858286016120a5565b925050602083013567ffffffffffffffff81111561215d57600080fd5b6121698582860161207b565b9150509250929050565b6000806000806080858703121561218957600080fd5b6000612197878288016120a5565b945050602085013567ffffffffffffffff8111156121b457600080fd5b6121c08782880161207b565b935050604085013567ffffffffffffffff8111156121dd57600080fd5b6121e98782880161207b565b925050606085013567ffffffffffffffff81111561220657600080fd5b6122128782880161207b565b91505092959194509250565b60008060008060008060c0878903121561223757600080fd5b600061224589828a016120a5565b965050602087013567ffffffffffffffff81111561226257600080fd5b61226e89828a0161207b565b955050604087013567ffffffffffffffff81111561228b57600080fd5b61229789828a0161207b565b945050606087013567ffffffffffffffff8111156122b457600080fd5b6122c089828a0161207b565b93505060806122d189828a016120a5565b92505060a06122e289828a016120a5565b9150509295509295509295565b600080600080600080600080610100898b03121561230c57600080fd5b600061231a8b828c016120a5565b985050602089013567ffffffffffffffff81111561233757600080fd5b6123438b828c0161207b565b97505060406123548b828c016120a5565b965050606089013567ffffffffffffffff81111561237157600080fd5b61237d8b828c0161207b565b955050608089013567ffffffffffffffff81111561239a57600080fd5b6123a68b828c0161207b565b94505060a089013567ffffffffffffffff8111156123c357600080fd5b6123cf8b828c0161207b565b93505060c089013567ffffffffffffffff8111156123ec57600080fd5b6123f88b828c0161207b565b92505060e089013567ffffffffffffffff81111561241557600080fd5b6124218b828c0161207b565b9150509295985092959890939650565b600061243d83836125e6565b905092915050565b60006124518383612a48565b905092915050565b60006124658383612c7f565b60208301905092915050565b61247a816131ba565b82525050565b612489816131ba565b82525050565b600061249a82613112565b6124a48185613165565b9350836020820285016124b6856130e2565b8060005b858110156124f257848403895281516124d38582612431565b94506124de8361313e565b925060208a019950506001810190506124ba565b50829750879550505050505092915050565b600061250f8261311d565b6125198185613176565b93508360208202850161252b856130f2565b8060005b8581101561256757848403895281516125488582612445565b94506125538361314b565b925060208a0199505060018101905061252f565b50829750879550505050505092915050565b600061258482613128565b61258e8185613187565b935061259983613102565b8060005b838110156125ca5781516125b18882612459565b97506125bc83613158565b92505060018101905061259d565b5085935050505092915050565b6125e0816131cc565b82525050565b60006125f182613133565b6125fb8185613198565b935061260b818560208601613211565b6126148161334c565b840191505092915050565b600061262a82613133565b61263481856131a9565b9350612644818560208601613211565b61264d8161334c565b840191505092915050565b6000612665603b836131a9565b91507f4f6e6c7920746865206d616e7566616374757265722063616e2061737369676e60008301527f207468652070726f6475637420746f206120637573746f6d65722e00000000006020830152604082019050919050565b60006126cb6017836131a9565b91507f50726f6475637420646f6573206e6f742065786973742e0000000000000000006000830152602082019050919050565b600061270b6012836131a9565b91507f50726f64756374206e6f7420666f756e642e00000000000000000000000000006000830152602082019050919050565b600061274b6023836131a9565b91507f50726f647563742068617320616c7265616479206265656e2064656c6976657260008301527f65642e00000000000000000000000000000000000000000000000000000000006020830152604082019050919050565b60006127b16024836131a9565b91507f50726f647563742077697468207468697320494420616c72656164792065786960008301527f7374732e000000000000000000000000000000000000000000000000000000006020830152604082019050919050565b60006128176037836131a9565b91507f50726f64756374206d7573742062652064656c697665726564206265666f726560008301527f2061737369676e696e6720746f20637573746f6d65722e0000000000000000006020830152604082019050919050565b600061287d6038836131a9565b91507f4f6e6c79207468652061737369676e6564206c6f67697374696373207061727460008301527f6e65722063616e2061646420636865636b706f696e74732e00000000000000006020830152604082019050919050565b60006128e3601d836131a9565b91507f50726f6475637420697320616c7265616479206365727469666965642e0000006000830152602082019050919050565b60006129236030836131a9565b91507f50726f6475637420616c72656164792061737369676e656420746f2061206c6f60008301527f6769737469637320706172746e65722e000000000000000000000000000000006020830152604082019050919050565b6000612989603a836131a9565b91507f4f6e6c79207468652061737369676e6564206c6f67697374696373207061727460008301527f6e65722063616e206d61726b2061732064656c6976657265642e0000000000006020830152604082019050919050565b60006129ef6035836131a9565b91507f50726f64756374206d75737420626520636572746966696564206265666f726560008301527f2061737369676e696e67206120636f75726965722e00000000000000000000006020830152604082019050919050565b600060a0830160008301518482036000860152612a6582826125e6565b91505060208301518482036020860152612a7f82826125e6565b91505060408301518482036040860152612a9982826125e6565b9150506060830151612aae6060860182612c7f565b506080830151612ac16080860182612c7f565b508091505092915050565b600061022083016000830151612ae56000860182612c7f565b5060208301518482036020860152612afd82826125e6565b9150506040830151612b126040860182612c7f565b5060608301518482036060860152612b2a82826125e6565b91505060808301518482036080860152612b4482826125e6565b91505060a083015184820360a0860152612b5e82826125e6565b91505060c083015184820360c0860152612b7882826125e6565b91505060e083015184820360e0860152612b9282826125e6565b915050610100830151612ba9610100860182612471565b50610120830151612bbe610120860182612471565b50610140830151612bd3610140860182612471565b50610160830151848203610160860152612bed82826125e6565b915050610180830151848203610180860152612c0982826125e6565b9150506101a08301518482036101a0860152612c2582826125e6565b9150506101c08301518482036101c0860152612c4182826125e6565b9150506101e0830151612c586101e08601826125d7565b50610200830151848203610200860152612c728282612504565b9150508091505092915050565b612c88816131f8565b82525050565b612c97816131f8565b82525050565b600060a0820190508181036000830152612cb7818861248f565b90508181036020830152612ccb818761248f565b90508181036040830152612cdf818661248f565b90508181036060830152612cf38185612579565b90508181036080830152612d078184612579565b90509695505050505050565b60006020820190508181036000830152612d2d8184612579565b905092915050565b60006020820190508181036000830152612d4e81612658565b9050919050565b60006020820190508181036000830152612d6e816126be565b9050919050565b60006020820190508181036000830152612d8e816126fe565b9050919050565b60006020820190508181036000830152612dae8161273e565b9050919050565b60006020820190508181036000830152612dce816127a4565b9050919050565b60006020820190508181036000830152612dee8161280a565b9050919050565b60006020820190508181036000830152612e0e81612870565b9050919050565b60006020820190508181036000830152612e2e816128d6565b9050919050565b60006020820190508181036000830152612e4e81612916565b9050919050565b60006020820190508181036000830152612e6e8161297c565b9050919050565b60006020820190508181036000830152612e8e816129e2565b9050919050565b60006020820190508181036000830152612eaf8184612acc565b905092915050565b6000604082019050612ecc6000830185612c8e565b612ed96020830184612480565b9392505050565b6000606082019050612ef56000830186612c8e565b8181036020830152612f07818561261f565b9050612f166040830184612480565b949350505050565b6000606082019050612f336000830186612c8e565b8181036020830152612f45818561261f565b90508181036040830152612f59818461261f565b9050949350505050565b600060c082019050612f786000830189612c8e565b8181036020830152612f8a818861261f565b90508181036040830152612f9e818761261f565b90508181036060830152612fb2818661261f565b9050612fc16080830185612c8e565b612fce60a0830184612c8e565b979650505050505050565b600061010082019050612fef600083018b612c8e565b8181036020830152613001818a61261f565b90506130106040830189612c8e565b8181036060830152613022818861261f565b90508181036080830152613036818761261f565b905081810360a083015261304a818661261f565b905081810360c083015261305e818561261f565b905081810360e0830152613072818461261f565b90509998505050505050505050565b6000604051905081810181811067ffffffffffffffff821117156130a8576130a761331d565b5b8060405250919050565b600067ffffffffffffffff8211156130cd576130cc61331d565b5b601f19601f8301169050602081019050919050565b6000819050602082019050919050565b6000819050602082019050919050565b6000819050602082019050919050565b600081519050919050565b600081519050919050565b600081519050919050565b600081519050919050565b6000602082019050919050565b6000602082019050919050565b6000602082019050919050565b600082825260208201905092915050565b600082825260208201905092915050565b600082825260208201905092915050565b600082825260208201905092915050565b600082825260208201905092915050565b60006131c5826131d8565b9050919050565b60008115159050919050565b600073ffffffffffffffffffffffffffffffffffffffff82169050919050565b6000819050919050565b82818337600083830152505050565b60005b8381101561322f578082015181840152602081019050613214565b8381111561323e576000848401525b50505050565b6000600282049050600182168061325c57607f821691505b602082108114156132705761326f6132ee565b5b50919050565b6000613281826131f8565b91507fffffffffffffffffffffffffffffffffffffffffffffffffffffffffffffffff8214156132b4576132b36132bf565b5b600182019050919050565b7f4e487b7100000000000000000000000000000000000000000000000000000000600052601160045260246000fd5b7f4e487b7100000000000000000000000000000000000000000000000000000000600052602260045260246000fd5b7f4e487b7100000000000000000000000000000000000000000000000000000000600052604160045260246000fd5b6000601f19601f8301169050919050565b613366816131ba565b811461337157600080fd5b50565b61337d816131f8565b811461338857600080fd5b5056fea2646970667358221220467524d2a550e60fbcbd8d961771c98901c806dba5829191a3d5bbd6a45e3a2264736f6c63430008000033",
  "immutableReferences": {},
  "source": "// SPDX-License-Identifier: MIT\r\npragma solidity ^0.8.0;\r\n\r\ncontract ProductTr {\r\n    // Define a struct for the Product\r\n    struct Product {\r\n        uint256 id;\r\n        string name;\r\n        uint256 price;\r\n        string manufacturerName;\r\n        string manufacturerDetails;\r\n        string longitude;\r\n        string latitude;\r\n        string category;\r\n        address manufacturer; // Store the address of the manufacturer\r\n        address logisticsPartner; // Store the address of the logistics partner\r\n        address customer; // Store the address of the customer (final receiver)\r\n        string deliveryStatus; // Track the delivery status (Wholesaler, Retailer, Customer)\r\n        string certificateAuthority; // Name of the certificate provider\r\n        string digitalSignature; // Digital signature of CA\r\n        string certificateDocHash; // IPFS hash of the certificate document\r\n        bool isCertified; // Certification status\r\n        Checkpoint[] checkpoints; // Array to store checkpoints\r\n    }\r\n\r\n    // Define a struct for the Checkpoints\r\n    struct Checkpoint {\r\n        string location;\r\n        string longitude;\r\n        string latitude;\r\n        uint256 checkInTime;\r\n        uint256 checkOutTime;\r\n    }\r\n\r\n    // Mapping to store products by their ID\r\n    mapping(uint256 => Product) private products;\r\n\r\n    // Array to store all product IDs\r\n    uint256[] private productIds;\r\n\r\n    // Events\r\n    event ProductAdded(\r\n        uint256 productId,\r\n        string name,\r\n        uint256 price,\r\n        string manufacturerName,\r\n        string manufacturerDetails,\r\n        string longitude,\r\n        string latitude,\r\n        string category\r\n    );\r\n\r\n    event ProductCertified(\r\n        uint256 productId,\r\n        string certificateAuthority,\r\n        string certificateDocHash\r\n    );\r\n\r\n    event ProductAssignedToCourier(\r\n        uint256 productId,\r\n        address logisticsPartner\r\n    );\r\n\r\n    event ProductDelivered(\r\n        uint256 productId,\r\n        string deliveryStatus,\r\n        address logisticsPartner\r\n    );\r\n\r\n    event ProductAssignedToCustomer(\r\n        uint256 productId,\r\n        address customer\r\n    );\r\n\r\n    event CheckpointAdded(\r\n        uint256 productId,\r\n        string location,\r\n        string longitude,\r\n        string latitude,\r\n        uint256 checkInTime,\r\n        uint256 checkOutTime\r\n    );\r\n\r\n    // Function to add a product\r\n    function addProduct(\r\n    uint256 _id,\r\n    string memory _name,\r\n    uint256 _price,\r\n    string memory _manufacturerName,\r\n    string memory _manufacturerDetails,\r\n    string memory _longitude,\r\n    string memory _latitude,\r\n    string memory _category\r\n) public {\r\n    // Ensure the product does not already exist\r\n    require(products[_id].id == 0, \"Product with this ID already exists.\");\r\n\r\n    // Create the product\r\n    Product storage newProduct = products[_id];\r\n    newProduct.id = _id;\r\n    newProduct.name = _name;\r\n    newProduct.price = _price;\r\n    newProduct.manufacturerName = _manufacturerName;\r\n    newProduct.manufacturerDetails = _manufacturerDetails;\r\n    newProduct.longitude = _longitude;\r\n    newProduct.latitude = _latitude;\r\n    newProduct.category = _category;\r\n    newProduct.manufacturer = msg.sender;\r\n    newProduct.logisticsPartner = address(0);\r\n    newProduct.customer = address(0);\r\n    newProduct.deliveryStatus = \"\";\r\n    newProduct.certificateAuthority = \"\";\r\n    newProduct.digitalSignature = \"\";\r\n    newProduct.certificateDocHash = \"\";\r\n    newProduct.isCertified = false;\r\n\r\n    // Add product ID to the list of products\r\n    productIds.push(_id);\r\n\r\n    // Emit event to log the product addition\r\n    emit ProductAdded(\r\n        _id,\r\n        _name,\r\n        _price,\r\n        _manufacturerName,\r\n        _manufacturerDetails,\r\n        _longitude,\r\n        _latitude,\r\n        _category\r\n    );\r\n}\r\n\r\n    // Function to certify a product\r\n    function certifyProduct(\r\n        uint256 _productId,\r\n        string memory _certificateAuthority,\r\n        string memory _digitalSignature,\r\n        string memory _certificateDocHash\r\n    ) public {\r\n        // Ensure the product exists\r\n        require(products[_productId].id != 0, \"Product does not exist.\");\r\n\r\n        // Ensure the product is not already certified\r\n        require(!products[_productId].isCertified, \"Product is already certified.\");\r\n\r\n        // Certify the product\r\n        products[_productId].certificateAuthority = _certificateAuthority;\r\n        products[_productId].digitalSignature = _digitalSignature;\r\n        products[_productId].certificateDocHash = _certificateDocHash;\r\n        products[_productId].isCertified = true;\r\n\r\n        // Emit event to log the certification\r\n        emit ProductCertified(_productId, _certificateAuthority, _certificateDocHash);\r\n    }\r\n\r\n    // Function for logistics partner to assign themselves to a product\r\n    function assignCourier(uint256 _productId) public {\r\n        // Ensure the product exists\r\n        require(products[_productId].id != 0, \"Product does not exist.\");\r\n\r\n        // Ensure the product is certified\r\n        require(products[_productId].isCertified, \"Product must be certified before assigning a courier.\");\r\n\r\n        // Ensure the product has not already been assigned to a logistics partner\r\n        require(products[_productId].logisticsPartner == address(0), \"Product already assigned to a logistics partner.\");\r\n\r\n        // Assign the logistics partner (the caller) to the product\r\n        products[_productId].logisticsPartner = msg.sender;\r\n\r\n        // Emit event to log the assignment of the logistics partner\r\n        emit ProductAssignedToCourier(_productId, msg.sender);\r\n    }\r\n\r\n    // Function to add a checkpoint for a product\r\n    function addCheckpoint(\r\n        uint256 _productId,\r\n        string memory _location,\r\n        string memory _longitude,\r\n        string memory _latitude,\r\n        uint256 _checkInTime,\r\n        uint256 _checkOutTime\r\n    ) public {\r\n        // Ensure the product exists\r\n        require(products[_productId].id != 0, \"Product does not exist.\");\r\n\r\n        // Ensure the caller is the logistics partner for this product\r\n        require(products[_productId].logisticsPartner == msg.sender, \"Only the assigned logistics partner can add checkpoints.\");\r\n\r\n        // Add the checkpoint to the product\r\n        products[_productId].checkpoints.push(\r\n            Checkpoint({\r\n                location: _location,\r\n                longitude: _longitude,\r\n                latitude: _latitude,\r\n                checkInTime: _checkInTime,\r\n                checkOutTime: _checkOutTime\r\n            })\r\n        );\r\n\r\n        // Emit event to log the checkpoint addition\r\n        emit CheckpointAdded(_productId, _location, _longitude, _latitude, _checkInTime, _checkOutTime);\r\n    }\r\n\r\n    // Function for logistics partner to mark the product as delivered\r\n    function markAsDelivered(uint256 _productId, string memory _deliveryStatus) public {\r\n        // Ensure the product exists\r\n        require(products[_productId].id != 0, \"Product does not exist.\");\r\n\r\n        // Ensure the caller is the logistics partner for this product\r\n        require(products[_productId].logisticsPartner == msg.sender, \"Only the assigned logistics partner can mark as delivered.\");\r\n\r\n        // Ensure the product has not already been delivered\r\n        require(bytes(products[_productId].deliveryStatus).length == 0, \"Product has already been delivered.\");\r\n\r\n        // Update the delivery status\r\n        products[_productId].deliveryStatus = _deliveryStatus;\r\n\r\n        // Emit event to log the delivery\r\n        emit ProductDelivered(_productId, _deliveryStatus, msg.sender);\r\n    }\r\n\r\n    // Function to assign a product to the customer\r\n    function assignToCustomer(uint256 _productId, address _customer) public {\r\n        // Ensure the product exists\r\n        require(products[_productId].id != 0, \"Product does not exist.\");\r\n\r\n        // Ensure the caller is the manufacturer of the product\r\n        require(products[_productId].manufacturer == msg.sender, \"Only the manufacturer can assign the product to a customer.\");\r\n\r\n        // Ensure the product has been delivered\r\n        require(bytes(products[_productId].deliveryStatus).length != 0, \"Product must be delivered before assigning to customer.\");\r\n\r\n        // Assign the customer to the product\r\n        products[_productId].customer = _customer;\r\n\r\n        // Emit event to log the assignment to customer\r\n        emit ProductAssignedToCustomer(_productId, _customer);\r\n    }\r\n\r\n    // Function to get a product by ID\r\n    function getProduct(uint256 _id) public view returns (Product memory) {\r\n        // Ensure the product exists\r\n        require(products[_id].id != 0, \"Product not found.\");\r\n\r\n        // Return the entire product struct\r\n        return products[_id];\r\n    }\r\n\r\n    // Function to get all product IDs\r\n    function getAllProductIds() public view returns (uint256[] memory) {\r\n        return productIds;\r\n    }\r\n\r\n    // Function to get all checkpoints for a specific product\r\nfunction getCheckpoints(uint256 _productId) public view returns (\r\n    string[] memory locations,\r\n    string[] memory longitudes,\r\n    string[] memory latitudes,\r\n    uint256[] memory checkInTimes,\r\n    uint256[] memory checkOutTimes\r\n) {\r\n    // Ensure the product exists\r\n    require(products[_productId].id != 0, \"Product does not exist.\");\r\n\r\n    // Get the number of checkpoints\r\n    uint256 checkpointCount = products[_productId].checkpoints.length;\r\n\r\n    // Initialize arrays to hold checkpoint data\r\n    locations = new string[](checkpointCount);\r\n    longitudes = new string[](checkpointCount);\r\n    latitudes = new string[](checkpointCount);\r\n    checkInTimes = new uint256[](checkpointCount);\r\n    checkOutTimes = new uint256[](checkpointCount);\r\n\r\n    // Populate the arrays with checkpoint data\r\n    for (uint256 i = 0; i < checkpointCount; i++) {\r\n        Checkpoint memory checkpoint = products[_productId].checkpoints[i];\r\n        locations[i] = checkpoint.location;\r\n        longitudes[i] = checkpoint.longitude;\r\n        latitudes[i] = checkpoint.latitude;\r\n        checkInTimes[i] = checkpoint.checkInTime;\r\n        checkOutTimes[i] = checkpoint.checkOutTime;\r\n    }\r\n}\r\n\r\n}",
  "sourcePath": "D:\\Harsh\\my-work\\contracts\\ProductTr.sol",
  "compiler": {
    "name": "solc",
    "version": "0.8.0+commit.c7dfd78e.Emscripten.clang"
  },
  "schemaVersion": "3.4.16",
  "updatedAt": "2024-12-28T07:31:05.786Z",
  "networkType": "ethereum",
  "devdoc": {
    "kind": "dev",
    "methods": {},
    "version": 1
  },
  "userdoc": {
    "kind": "user",
    "methods": {},
    "version": 1
  }
}