{
  "contractName": "ProductTrac",
  "abi": [
    {
      "anonymous": false,
      "inputs": [
        {
          "indexed": false,
          "internalType": "uint256",
          "name": "productId",
          "type": "uint256"
        },
        {
          "indexed": false,
          "internalType": "string",
          "name": "location",
          "type": "string"
        },
        {
          "indexed": false,
          "internalType": "uint256",
          "name": "checkInTime",
          "type": "uint256"
        },
        {
          "indexed": false,
          "internalType": "uint256",
          "name": "checkOutTime",
          "type": "uint256"
        }
      ],
      "name": "CheckpointAdded",
      "type": "event"
    },
    {
      "anonymous": false,
      "inputs": [
        {
          "indexed": false,
          "internalType": "uint256",
          "name": "productId",
          "type": "uint256"
        },
        {
          "indexed": false,
          "internalType": "string",
          "name": "name",
          "type": "string"
        },
        {
          "indexed": false,
          "internalType": "uint256",
          "name": "price",
          "type": "uint256"
        },
        {
          "indexed": false,
          "internalType": "string",
          "name": "manufacturerName",
          "type": "string"
        },
        {
          "indexed": false,
          "internalType": "string",
          "name": "manufacturerDetails",
          "type": "string"
        },
        {
          "indexed": false,
          "internalType": "string",
          "name": "longitude",
          "type": "string"
        },
        {
          "indexed": false,
          "internalType": "string",
          "name": "latitude",
          "type": "string"
        },
        {
          "indexed": false,
          "internalType": "string",
          "name": "category",
          "type": "string"
        }
      ],
      "name": "ProductAdded",
      "type": "event"
    },
    {
      "anonymous": false,
      "inputs": [
        {
          "indexed": false,
          "internalType": "uint256",
          "name": "productId",
          "type": "uint256"
        },
        {
          "indexed": false,
          "internalType": "address",
          "name": "logisticsPartner",
          "type": "address"
        }
      ],
      "name": "ProductAssignedToCourier",
      "type": "event"
    },
    {
      "anonymous": false,
      "inputs": [
        {
          "indexed": false,
          "internalType": "uint256",
          "name": "productId",
          "type": "uint256"
        },
        {
          "indexed": false,
          "internalType": "address",
          "name": "customer",
          "type": "address"
        }
      ],
      "name": "ProductAssignedToCustomer",
      "type": "event"
    },
    {
      "anonymous": false,
      "inputs": [
        {
          "indexed": false,
          "internalType": "uint256",
          "name": "productId",
          "type": "uint256"
        },
        {
          "indexed": false,
          "internalType": "string",
          "name": "certificateAuthority",
          "type": "string"
        },
        {
          "indexed": false,
          "internalType": "string",
          "name": "certificateDocHash",
          "type": "string"
        }
      ],
      "name": "ProductCertified",
      "type": "event"
    },
    {
      "anonymous": false,
      "inputs": [
        {
          "indexed": false,
          "internalType": "uint256",
          "name": "productId",
          "type": "uint256"
        },
        {
          "indexed": false,
          "internalType": "string",
          "name": "deliveryStatus",
          "type": "string"
        },
        {
          "indexed": false,
          "internalType": "address",
          "name": "logisticsPartner",
          "type": "address"
        }
      ],
      "name": "ProductDelivered",
      "type": "event"
    },
    {
      "inputs": [
        {
          "internalType": "uint256",
          "name": "_id",
          "type": "uint256"
        },
        {
          "internalType": "string",
          "name": "_name",
          "type": "string"
        },
        {
          "internalType": "uint256",
          "name": "_price",
          "type": "uint256"
        },
        {
          "internalType": "string",
          "name": "_manufacturerName",
          "type": "string"
        },
        {
          "internalType": "string",
          "name": "_manufacturerDetails",
          "type": "string"
        },
        {
          "internalType": "string",
          "name": "_longitude",
          "type": "string"
        },
        {
          "internalType": "string",
          "name": "_latitude",
          "type": "string"
        },
        {
          "internalType": "string",
          "name": "_category",
          "type": "string"
        }
      ],
      "name": "addProduct",
      "outputs": [],
      "stateMutability": "nonpayable",
      "type": "function"
    },
    {
      "inputs": [
        {
          "internalType": "uint256",
          "name": "_productId",
          "type": "uint256"
        },
        {
          "internalType": "string",
          "name": "_certificateAuthority",
          "type": "string"
        },
        {
          "internalType": "string",
          "name": "_digitalSignature",
          "type": "string"
        },
        {
          "internalType": "string",
          "name": "_certificateDocHash",
          "type": "string"
        }
      ],
      "name": "certifyProduct",
      "outputs": [],
      "stateMutability": "nonpayable",
      "type": "function"
    },
    {
      "inputs": [
        {
          "internalType": "uint256",
          "name": "_productId",
          "type": "uint256"
        }
      ],
      "name": "assignCourier",
      "outputs": [],
      "stateMutability": "nonpayable",
      "type": "function"
    },
    {
      "inputs": [
        {
          "internalType": "uint256",
          "name": "_productId",
          "type": "uint256"
        },
        {
          "internalType": "string",
          "name": "_location",
          "type": "string"
        },
        {
          "internalType": "uint256",
          "name": "_checkInTime",
          "type": "uint256"
        },
        {
          "internalType": "uint256",
          "name": "_checkOutTime",
          "type": "uint256"
        }
      ],
      "name": "addCheckpoint",
      "outputs": [],
      "stateMutability": "nonpayable",
      "type": "function"
    },
    {
      "inputs": [
        {
          "internalType": "uint256",
          "name": "_productId",
          "type": "uint256"
        },
        {
          "internalType": "string",
          "name": "_deliveryStatus",
          "type": "string"
        }
      ],
      "name": "markAsDelivered",
      "outputs": [],
      "stateMutability": "nonpayable",
      "type": "function"
    },
    {
      "inputs": [
        {
          "internalType": "uint256",
          "name": "_productId",
          "type": "uint256"
        },
        {
          "internalType": "address",
          "name": "_customer",
          "type": "address"
        }
      ],
      "name": "assignToCustomer",
      "outputs": [],
      "stateMutability": "nonpayable",
      "type": "function"
    },
    {
      "inputs": [
        {
          "internalType": "uint256",
          "name": "_id",
          "type": "uint256"
        }
      ],
      "name": "getProduct",
      "outputs": [
        {
          "components": [
            {
              "internalType": "uint256",
              "name": "id",
              "type": "uint256"
            },
            {
              "internalType": "string",
              "name": "name",
              "type": "string"
            },
            {
              "internalType": "uint256",
              "name": "price",
              "type": "uint256"
            },
            {
              "internalType": "string",
              "name": "manufacturerName",
              "type": "string"
            },
            {
              "internalType": "string",
              "name": "manufacturerDetails",
              "type": "string"
            },
            {
              "internalType": "string",
              "name": "longitude",
              "type": "string"
            },
            {
              "internalType": "string",
              "name": "latitude",
              "type": "string"
            },
            {
              "internalType": "string",
              "name": "category",
              "type": "string"
            },
            {
              "internalType": "address",
              "name": "manufacturer",
              "type": "address"
            },
            {
              "internalType": "address",
              "name": "logisticsPartner",
              "type": "address"
            },
            {
              "internalType": "address",
              "name": "customer",
              "type": "address"
            },
            {
              "internalType": "string",
              "name": "deliveryStatus",
              "type": "string"
            },
            {
              "internalType": "string",
              "name": "certificateAuthority",
              "type": "string"
            },
            {
              "internalType": "string",
              "name": "digitalSignature",
              "type": "string"
            },
            {
              "internalType": "string",
              "name": "certificateDocHash",
              "type": "string"
            },
            {
              "internalType": "bool",
              "name": "isCertified",
              "type": "bool"
            },
            {
              "components": [
                {
                  "internalType": "string",
                  "name": "location",
                  "type": "string"
                },
                {
                  "internalType": "uint256",
                  "name": "checkInTime",
                  "type": "uint256"
                },
                {
                  "internalType": "uint256",
                  "name": "checkOutTime",
                  "type": "uint256"
                }
              ],
              "internalType": "struct ProductTrac.Checkpoint[]",
              "name": "checkpoints",
              "type": "tuple[]"
            }
          ],
          "internalType": "struct ProductTrac.Product",
          "name": "",
          "type": "tuple"
        }
      ],
      "stateMutability": "view",
      "type": "function",
      "constant": true
    },
    {
      "inputs": [],
      "name": "getAllProductIds",
      "outputs": [
        {
          "internalType": "uint256[]",
          "name": "",
          "type": "uint256[]"
        }
      ],
      "stateMutability": "view",
      "type": "function",
      "constant": true
    },
    {
      "inputs": [
        {
          "internalType": "uint256",
          "name": "_productId",
          "type": "uint256"
        }
      ],
      "name": "getCheckpoints",
      "outputs": [
        {
          "internalType": "string[]",
          "name": "locations",
          "type": "string[]"
        },
        {
          "internalType": "uint256[]",
          "name": "checkInTimes",
          "type": "uint256[]"
        },
        {
          "internalType": "uint256[]",
          "name": "checkOutTimes",
          "type": "uint256[]"
        }
      ],
      "stateMutability": "view",
      "type": "function",
      "constant": true
    }
  ],
  "bytecode": "0x608060405234801561001057600080fd5b50612ecb806100206000396000f3fe608060405234801561001057600080fd5b50600436106100935760003560e01c806354a553831161006657806354a5538314610108578063663c01af146101245780636897591c146101425780637fbb289714610174578063b9db15b41461019057610093565b806308915fec146100985780630a45a468146100b45780632dc8ab30146100d057806353719feb146100ec575b600080fd5b6100b260048036038101906100ad9190611ccb565b6101c0565b005b6100ce60048036038101906100c99190611d07565b6103b2565b005b6100ea60048036038101906100e59190611f48565b61057b565b005b61010660048036038101906101019190611e06565b610746565b005b610122600480360381019061011d9190611d5b565b610a5d565b005b61012c610c06565b6040516101399190612847565b60405180910390f35b61015c60048036038101906101579190611ca2565b610c5e565b60405161016b939291906127fb565b60405180910390f35b61018e60048036038101906101899190611ca2565b611046565b005b6101aa60048036038101906101a59190611ca2565b611235565b6040516101b791906129c9565b60405180910390f35b6000806000848152602001908152602001600020600001541415610219576040517f08c379a000000000000000000000000000000000000000000000000000000000815260040161021090612889565b60405180910390fd5b3373ffffffffffffffffffffffffffffffffffffffff1660008084815260200190815260200160002060080160009054906101000a900473ffffffffffffffffffffffffffffffffffffffff1673ffffffffffffffffffffffffffffffffffffffff16146102bc576040517f08c379a00000000000000000000000000000000000000000000000000000000081526004016102b390612869565b60405180910390fd5b6000806000848152602001908152602001600020600b0180546102de90612d4e565b90501415610321576040517f08c379a000000000000000000000000000000000000000000000000000000000815260040161031890612909565b60405180910390fd5b80600080848152602001908152602001600020600a0160006101000a81548173ffffffffffffffffffffffffffffffffffffffff021916908373ffffffffffffffffffffffffffffffffffffffff1602179055507fdcd866eb2eb01842d6640711672f624703e64d531e876b998c14df33c6dfc85882826040516103a69291906129eb565b60405180910390a15050565b600080600084815260200190815260200160002060000154141561040b576040517f08c379a000000000000000000000000000000000000000000000000000000000815260040161040290612889565b60405180910390fd5b3373ffffffffffffffffffffffffffffffffffffffff1660008084815260200190815260200160002060090160009054906101000a900473ffffffffffffffffffffffffffffffffffffffff1673ffffffffffffffffffffffffffffffffffffffff16146104ae576040517f08c379a00000000000000000000000000000000000000000000000000000000081526004016104a590612989565b60405180910390fd5b6000806000848152602001908152602001600020600b0180546104d090612d4e565b905014610512576040517f08c379a0000000000000000000000000000000000000000000000000000000008152600401610509906128c9565b60405180910390fd5b80600080848152602001908152602001600020600b01908051906020019061053b929190611aa5565b507fb9a45c037b71fd1dcacdab5540bca4d87614bd70b4fc430f919cec227d1475b982823360405161056f93929190612a14565b60405180910390a15050565b60008060008681526020019081526020016000206000015414156105d4576040517f08c379a00000000000000000000000000000000000000000000000000000000081526004016105cb90612889565b60405180910390fd5b3373ffffffffffffffffffffffffffffffffffffffff1660008086815260200190815260200160002060090160009054906101000a900473ffffffffffffffffffffffffffffffffffffffff1673ffffffffffffffffffffffffffffffffffffffff1614610677576040517f08c379a000000000000000000000000000000000000000000000000000000000815260040161066e90612929565b60405180910390fd5b600080858152602001908152602001600020601001604051806060016040528085815260200184815260200183815250908060018154018082558091505060019003906000526020600020906003020160009091909190915060008201518160000190805190602001906106ec929190611aa5565b50602082015181600101556040820151816002015550507ff9fbadc1782312256107846b85fea6f0718de7a8e17bf1da7704c590cbe01a40848484846040516107389493929190612b3f565b60405180910390a150505050565b60008060008a8152602001908152602001600020600001541461079e576040517f08c379a0000000000000000000000000000000000000000000000000000000008152600401610795906128e9565b60405180910390fd5b60008060008a81526020019081526020016000209050888160000181905550878160010190805190602001906107d5929190611aa5565b50868160020181905550858160030190805190602001906107f7929190611aa5565b5084816004019080519060200190610810929190611aa5565b5083816005019080519060200190610829929190611aa5565b5082816006019080519060200190610842929190611aa5565b508181600701908051906020019061085b929190611aa5565b50338160080160006101000a81548173ffffffffffffffffffffffffffffffffffffffff021916908373ffffffffffffffffffffffffffffffffffffffff16021790555060008160090160006101000a81548173ffffffffffffffffffffffffffffffffffffffff021916908373ffffffffffffffffffffffffffffffffffffffff160217905550600081600a0160006101000a81548173ffffffffffffffffffffffffffffffffffffffff021916908373ffffffffffffffffffffffffffffffffffffffff1602179055506040518060200160405280600081525081600b01908051906020019061094e929190611aa5565b506040518060200160405280600081525081600c019080519060200190610976929190611aa5565b506040518060200160405280600081525081600d01908051906020019061099e929190611aa5565b506040518060200160405280600081525081600e0190805190602001906109c6929190611aa5565b50600081600f0160006101000a81548160ff02191690831515021790555060018990806001815401808255809150506001900390600052602060002001600090919091909150557f49560a36f85c41bb0ace6904cd35970c16e59f186a8d63bc04e24c3746d46da48989898989898989604051610a4a989796959493929190612a97565b60405180910390a1505050505050505050565b6000806000868152602001908152602001600020600001541415610ab6576040517f08c379a0000000000000000000000000000000000000000000000000000000008152600401610aad90612889565b60405180910390fd5b600080858152602001908152602001600020600f0160009054906101000a900460ff1615610b19576040517f08c379a0000000000000000000000000000000000000000000000000000000008152600401610b1090612949565b60405180910390fd5b82600080868152602001908152602001600020600c019080519060200190610b42929190611aa5565b5081600080868152602001908152602001600020600d019080519060200190610b6c929190611aa5565b5080600080868152602001908152602001600020600e019080519060200190610b96929190611aa5565b506001600080868152602001908152602001600020600f0160006101000a81548160ff0219169083151502179055507f3e581853ab400edceb80c58b786c680e464fffa451fb3a82541f74400b20c87a848483604051610bf893929190612a52565b60405180910390a150505050565b60606001805480602002602001604051908101604052809291908181526020018280548015610c5457602002820191906000526020600020905b815481526020019060010190808311610c40575b5050505050905090565b60608060606000806000868152602001908152602001600020600001541415610cbc576040517f08c379a0000000000000000000000000000000000000000000000000000000008152600401610cb390612889565b60405180910390fd5b60008060008681526020019081526020016000206010018054905090508067ffffffffffffffff811115610d19577f4e487b7100000000000000000000000000000000000000000000000000000000600052604160045260246000fd5b604051908082528060200260200182016040528015610d4c57816020015b6060815260200190600190039081610d375790505b5093508067ffffffffffffffff811115610d8f577f4e487b7100000000000000000000000000000000000000000000000000000000600052604160045260246000fd5b604051908082528060200260200182016040528015610dbd5781602001602082028036833780820191505090505b5092508067ffffffffffffffff811115610e00577f4e487b7100000000000000000000000000000000000000000000000000000000600052604160045260246000fd5b604051908082528060200260200182016040528015610e2e5781602001602082028036833780820191505090505b50915060005b8181101561103d5760008060008881526020019081526020016000206010018281548110610e8b577f4e487b7100000000000000000000000000000000000000000000000000000000600052603260045260246000fd5b9060005260206000209060030201604051806060016040529081600082018054610eb490612d4e565b80601f0160208091040260200160405190810160405280929190818152602001828054610ee090612d4e565b8015610f2d5780601f10610f0257610100808354040283529160200191610f2d565b820191906000526020600020905b815481529060010190602001808311610f1057829003601f168201915b505050505081526020016001820154815260200160028201548152505090508060000151868381518110610f8a577f4e487b7100000000000000000000000000000000000000000000000000000000600052603260045260246000fd5b60200260200101819052508060200151858381518110610fd3577f4e487b7100000000000000000000000000000000000000000000000000000000600052603260045260246000fd5b602002602001018181525050806040015184838151811061101d577f4e487b7100000000000000000000000000000000000000000000000000000000600052603260045260246000fd5b60200260200101818152505050808061103590612d80565b915050610e34565b50509193909250565b600080600083815260200190815260200160002060000154141561109f576040517f08c379a000000000000000000000000000000000000000000000000000000000815260040161109690612889565b60405180910390fd5b600080828152602001908152602001600020600f0160009054906101000a900460ff16611101576040517f08c379a00000000000000000000000000000000000000000000000000000000081526004016110f8906129a9565b60405180910390fd5b600073ffffffffffffffffffffffffffffffffffffffff1660008083815260200190815260200160002060090160009054906101000a900473ffffffffffffffffffffffffffffffffffffffff1673ffffffffffffffffffffffffffffffffffffffff16146111a5576040517f08c379a000000000000000000000000000000000000000000000000000000000815260040161119c90612969565b60405180910390fd5b3360008083815260200190815260200160002060090160006101000a81548173ffffffffffffffffffffffffffffffffffffffff021916908373ffffffffffffffffffffffffffffffffffffffff1602179055507fc7f29f9c6ead206865112a60f0079e653c03500108e28ed5ce3a092634a0f01d813360405161122a9291906129eb565b60405180910390a150565b61123d611b2b565b6000806000848152602001908152602001600020600001541415611296576040517f08c379a000000000000000000000000000000000000000000000000000000000815260040161128d906128a9565b60405180910390fd5b60008083815260200190815260200160002060405180610220016040529081600082015481526020016001820180546112ce90612d4e565b80601f01602080910402602001604051908101604052809291908181526020018280546112fa90612d4e565b80156113475780601f1061131c57610100808354040283529160200191611347565b820191906000526020600020905b81548152906001019060200180831161132a57829003601f168201915b505050505081526020016002820154815260200160038201805461136a90612d4e565b80601f016020809104026020016040519081016040528092919081815260200182805461139690612d4e565b80156113e35780601f106113b8576101008083540402835291602001916113e3565b820191906000526020600020905b8154815290600101906020018083116113c657829003601f168201915b505050505081526020016004820180546113fc90612d4e565b80601f016020809104026020016040519081016040528092919081815260200182805461142890612d4e565b80156114755780601f1061144a57610100808354040283529160200191611475565b820191906000526020600020905b81548152906001019060200180831161145857829003601f168201915b5050505050815260200160058201805461148e90612d4e565b80601f01602080910402602001604051908101604052809291908181526020018280546114ba90612d4e565b80156115075780601f106114dc57610100808354040283529160200191611507565b820191906000526020600020905b8154815290600101906020018083116114ea57829003601f168201915b5050505050815260200160068201805461152090612d4e565b80601f016020809104026020016040519081016040528092919081815260200182805461154c90612d4e565b80156115995780601f1061156e57610100808354040283529160200191611599565b820191906000526020600020905b81548152906001019060200180831161157c57829003601f168201915b505050505081526020016007820180546115b290612d4e565b80601f01602080910402602001604051908101604052809291908181526020018280546115de90612d4e565b801561162b5780601f106116005761010080835404028352916020019161162b565b820191906000526020600020905b81548152906001019060200180831161160e57829003601f168201915b505050505081526020016008820160009054906101000a900473ffffffffffffffffffffffffffffffffffffffff1673ffffffffffffffffffffffffffffffffffffffff1673ffffffffffffffffffffffffffffffffffffffff1681526020016009820160009054906101000a900473ffffffffffffffffffffffffffffffffffffffff1673ffffffffffffffffffffffffffffffffffffffff1673ffffffffffffffffffffffffffffffffffffffff168152602001600a820160009054906101000a900473ffffffffffffffffffffffffffffffffffffffff1673ffffffffffffffffffffffffffffffffffffffff1673ffffffffffffffffffffffffffffffffffffffff168152602001600b8201805461174690612d4e565b80601f016020809104026020016040519081016040528092919081815260200182805461177290612d4e565b80156117bf5780601f10611794576101008083540402835291602001916117bf565b820191906000526020600020905b8154815290600101906020018083116117a257829003601f168201915b50505050508152602001600c820180546117d890612d4e565b80601f016020809104026020016040519081016040528092919081815260200182805461180490612d4e565b80156118515780601f1061182657610100808354040283529160200191611851565b820191906000526020600020905b81548152906001019060200180831161183457829003601f168201915b50505050508152602001600d8201805461186a90612d4e565b80601f016020809104026020016040519081016040528092919081815260200182805461189690612d4e565b80156118e35780601f106118b8576101008083540402835291602001916118e3565b820191906000526020600020905b8154815290600101906020018083116118c657829003601f168201915b50505050508152602001600e820180546118fc90612d4e565b80601f016020809104026020016040519081016040528092919081815260200182805461192890612d4e565b80156119755780601f1061194a57610100808354040283529160200191611975565b820191906000526020600020905b81548152906001019060200180831161195857829003601f168201915b50505050508152602001600f820160009054906101000a900460ff1615151515815260200160108201805480602002602001604051908101604052809291908181526020016000905b82821015611a9657838290600052602060002090600302016040518060600160405290816000820180546119f190612d4e565b80601f0160208091040260200160405190810160405280929190818152602001828054611a1d90612d4e565b8015611a6a5780601f10611a3f57610100808354040283529160200191611a6a565b820191906000526020600020905b815481529060010190602001808311611a4d57829003601f168201915b5050505050815260200160018201548152602001600282015481525050815260200190600101906119be565b50505050815250509050919050565b828054611ab190612d4e565b90600052602060002090601f016020900481019282611ad35760008555611b1a565b82601f10611aec57805160ff1916838001178555611b1a565b82800160010185558215611b1a579182015b82811115611b19578251825591602001919060010190611afe565b5b509050611b279190611bf3565b5090565b6040518061022001604052806000815260200160608152602001600081526020016060815260200160608152602001606081526020016060815260200160608152602001600073ffffffffffffffffffffffffffffffffffffffff168152602001600073ffffffffffffffffffffffffffffffffffffffff168152602001600073ffffffffffffffffffffffffffffffffffffffff16815260200160608152602001606081526020016060815260200160608152602001600015158152602001606081525090565b5b80821115611c0c576000816000905550600101611bf4565b5090565b6000611c23611c1e84612bbc565b612b8b565b905082815260208101848484011115611c3b57600080fd5b611c46848285612d0c565b509392505050565b600081359050611c5d81612e67565b92915050565b600082601f830112611c7457600080fd5b8135611c84848260208601611c10565b91505092915050565b600081359050611c9c81612e7e565b92915050565b600060208284031215611cb457600080fd5b6000611cc284828501611c8d565b91505092915050565b60008060408385031215611cde57600080fd5b6000611cec85828601611c8d565b9250506020611cfd85828601611c4e565b9150509250929050565b60008060408385031215611d1a57600080fd5b6000611d2885828601611c8d565b925050602083013567ffffffffffffffff811115611d4557600080fd5b611d5185828601611c63565b9150509250929050565b60008060008060808587031215611d7157600080fd5b6000611d7f87828801611c8d565b945050602085013567ffffffffffffffff811115611d9c57600080fd5b611da887828801611c63565b935050604085013567ffffffffffffffff811115611dc557600080fd5b611dd187828801611c63565b925050606085013567ffffffffffffffff811115611dee57600080fd5b611dfa87828801611c63565b91505092959194509250565b600080600080600080600080610100898b031215611e2357600080fd5b6000611e318b828c01611c8d565b985050602089013567ffffffffffffffff811115611e4e57600080fd5b611e5a8b828c01611c63565b9750506040611e6b8b828c01611c8d565b965050606089013567ffffffffffffffff811115611e8857600080fd5b611e948b828c01611c63565b955050608089013567ffffffffffffffff811115611eb157600080fd5b611ebd8b828c01611c63565b94505060a089013567ffffffffffffffff811115611eda57600080fd5b611ee68b828c01611c63565b93505060c089013567ffffffffffffffff811115611f0357600080fd5b611f0f8b828c01611c63565b92505060e089013567ffffffffffffffff811115611f2c57600080fd5b611f388b828c01611c63565b9150509295985092959890939650565b60008060008060808587031215611f5e57600080fd5b6000611f6c87828801611c8d565b945050602085013567ffffffffffffffff811115611f8957600080fd5b611f9587828801611c63565b9350506040611fa687828801611c8d565b9250506060611fb787828801611c8d565b91505092959194509250565b6000611fcf8383612178565b905092915050565b6000611fe383836125da565b905092915050565b6000611ff783836127dd565b60208301905092915050565b61200c81612cc4565b82525050565b61201b81612cc4565b82525050565b600061202c82612c1c565b6120368185612c6f565b93508360208202850161204885612bec565b8060005b8581101561208457848403895281516120658582611fc3565b945061207083612c48565b925060208a0199505060018101905061204c565b50829750879550505050505092915050565b60006120a182612c27565b6120ab8185612c80565b9350836020820285016120bd85612bfc565b8060005b858110156120f957848403895281516120da8582611fd7565b94506120e583612c55565b925060208a019950506001810190506120c1565b50829750879550505050505092915050565b600061211682612c32565b6121208185612c91565b935061212b83612c0c565b8060005b8381101561215c5781516121438882611feb565b975061214e83612c62565b92505060018101905061212f565b5085935050505092915050565b61217281612cd6565b82525050565b600061218382612c3d565b61218d8185612ca2565b935061219d818560208601612d1b565b6121a681612e56565b840191505092915050565b60006121bc82612c3d565b6121c68185612cb3565b93506121d6818560208601612d1b565b6121df81612e56565b840191505092915050565b60006121f7603b83612cb3565b91507f4f6e6c7920746865206d616e7566616374757265722063616e2061737369676e60008301527f207468652070726f6475637420746f206120637573746f6d65722e00000000006020830152604082019050919050565b600061225d601783612cb3565b91507f50726f6475637420646f6573206e6f742065786973742e0000000000000000006000830152602082019050919050565b600061229d601283612cb3565b91507f50726f64756374206e6f7420666f756e642e00000000000000000000000000006000830152602082019050919050565b60006122dd602383612cb3565b91507f50726f647563742068617320616c7265616479206265656e2064656c6976657260008301527f65642e00000000000000000000000000000000000000000000000000000000006020830152604082019050919050565b6000612343602483612cb3565b91507f50726f647563742077697468207468697320494420616c72656164792065786960008301527f7374732e000000000000000000000000000000000000000000000000000000006020830152604082019050919050565b60006123a9603783612cb3565b91507f50726f64756374206d7573742062652064656c697665726564206265666f726560008301527f2061737369676e696e6720746f20637573746f6d65722e0000000000000000006020830152604082019050919050565b600061240f603883612cb3565b91507f4f6e6c79207468652061737369676e6564206c6f67697374696373207061727460008301527f6e65722063616e2061646420636865636b706f696e74732e00000000000000006020830152604082019050919050565b6000612475601d83612cb3565b91507f50726f6475637420697320616c7265616479206365727469666965642e0000006000830152602082019050919050565b60006124b5603083612cb3565b91507f50726f6475637420616c72656164792061737369676e656420746f2061206c6f60008301527f6769737469637320706172746e65722e000000000000000000000000000000006020830152604082019050919050565b600061251b603a83612cb3565b91507f4f6e6c79207468652061737369676e6564206c6f67697374696373207061727460008301527f6e65722063616e206d61726b2061732064656c6976657265642e0000000000006020830152604082019050919050565b6000612581603583612cb3565b91507f50726f64756374206d75737420626520636572746966696564206265666f726560008301527f2061737369676e696e67206120636f75726965722e00000000000000000000006020830152604082019050919050565b600060608301600083015184820360008601526125f78282612178565b915050602083015161260c60208601826127dd565b50604083015161261f60408601826127dd565b508091505092915050565b60006102208301600083015161264360008601826127dd565b506020830151848203602086015261265b8282612178565b915050604083015161267060408601826127dd565b50606083015184820360608601526126888282612178565b915050608083015184820360808601526126a28282612178565b91505060a083015184820360a08601526126bc8282612178565b91505060c083015184820360c08601526126d68282612178565b91505060e083015184820360e08601526126f08282612178565b915050610100830151612707610100860182612003565b5061012083015161271c610120860182612003565b50610140830151612731610140860182612003565b5061016083015184820361016086015261274b8282612178565b9150506101808301518482036101808601526127678282612178565b9150506101a08301518482036101a08601526127838282612178565b9150506101c08301518482036101c086015261279f8282612178565b9150506101e08301516127b66101e0860182612169565b506102008301518482036102008601526127d08282612096565b9150508091505092915050565b6127e681612d02565b82525050565b6127f581612d02565b82525050565b600060608201905081810360008301526128158186612021565b90508181036020830152612829818561210b565b9050818103604083015261283d818461210b565b9050949350505050565b60006020820190508181036000830152612861818461210b565b905092915050565b60006020820190508181036000830152612882816121ea565b9050919050565b600060208201905081810360008301526128a281612250565b9050919050565b600060208201905081810360008301526128c281612290565b9050919050565b600060208201905081810360008301526128e2816122d0565b9050919050565b6000602082019050818103600083015261290281612336565b9050919050565b600060208201905081810360008301526129228161239c565b9050919050565b6000602082019050818103600083015261294281612402565b9050919050565b6000602082019050818103600083015261296281612468565b9050919050565b60006020820190508181036000830152612982816124a8565b9050919050565b600060208201905081810360008301526129a28161250e565b9050919050565b600060208201905081810360008301526129c281612574565b9050919050565b600060208201905081810360008301526129e3818461262a565b905092915050565b6000604082019050612a0060008301856127ec565b612a0d6020830184612012565b9392505050565b6000606082019050612a2960008301866127ec565b8181036020830152612a3b81856121b1565b9050612a4a6040830184612012565b949350505050565b6000606082019050612a6760008301866127ec565b8181036020830152612a7981856121b1565b90508181036040830152612a8d81846121b1565b9050949350505050565b600061010082019050612aad600083018b6127ec565b8181036020830152612abf818a6121b1565b9050612ace60408301896127ec565b8181036060830152612ae081886121b1565b90508181036080830152612af481876121b1565b905081810360a0830152612b0881866121b1565b905081810360c0830152612b1c81856121b1565b905081810360e0830152612b3081846121b1565b90509998505050505050505050565b6000608082019050612b5460008301876127ec565b8181036020830152612b6681866121b1565b9050612b7560408301856127ec565b612b8260608301846127ec565b95945050505050565b6000604051905081810181811067ffffffffffffffff82111715612bb257612bb1612e27565b5b8060405250919050565b600067ffffffffffffffff821115612bd757612bd6612e27565b5b601f19601f8301169050602081019050919050565b6000819050602082019050919050565b6000819050602082019050919050565b6000819050602082019050919050565b600081519050919050565b600081519050919050565b600081519050919050565b600081519050919050565b6000602082019050919050565b6000602082019050919050565b6000602082019050919050565b600082825260208201905092915050565b600082825260208201905092915050565b600082825260208201905092915050565b600082825260208201905092915050565b600082825260208201905092915050565b6000612ccf82612ce2565b9050919050565b60008115159050919050565b600073ffffffffffffffffffffffffffffffffffffffff82169050919050565b6000819050919050565b82818337600083830152505050565b60005b83811015612d39578082015181840152602081019050612d1e565b83811115612d48576000848401525b50505050565b60006002820490506001821680612d6657607f821691505b60208210811415612d7a57612d79612df8565b5b50919050565b6000612d8b82612d02565b91507fffffffffffffffffffffffffffffffffffffffffffffffffffffffffffffffff821415612dbe57612dbd612dc9565b5b600182019050919050565b7f4e487b7100000000000000000000000000000000000000000000000000000000600052601160045260246000fd5b7f4e487b7100000000000000000000000000000000000000000000000000000000600052602260045260246000fd5b7f4e487b7100000000000000000000000000000000000000000000000000000000600052604160045260246000fd5b6000601f19601f8301169050919050565b612e7081612cc4565b8114612e7b57600080fd5b50565b612e8781612d02565b8114612e9257600080fd5b5056fea2646970667358221220920fca3aff75785912f63bb7bbbf8f295344618f55485c0275331e383ecd2a5364736f6c63430008000033",
  "immutableReferences": {},
  "source": "// SPDX-License-Identifier: MIT\r\npragma solidity ^0.8.0;\r\n\r\ncontract ProductTrac {\r\n    // Define a struct for the Product\r\n    struct Product {\r\n        uint256 id;\r\n        string name;\r\n        uint256 price;\r\n        string manufacturerName;\r\n        string manufacturerDetails;\r\n        string longitude;\r\n        string latitude;\r\n        string category;\r\n        address manufacturer; // Store the address of the manufacturer\r\n        address logisticsPartner; // Store the address of the logistics partner\r\n        address customer; // Store the address of the customer (final receiver)\r\n        string deliveryStatus; // Track the delivery status (Wholesaler, Retailer, Customer)\r\n        string certificateAuthority; // Name of the certificate provider\r\n        string digitalSignature; // Digital signature of CA\r\n        string certificateDocHash; // IPFS hash of the certificate document\r\n        bool isCertified; // Certification status\r\n        Checkpoint[] checkpoints; // Array to store checkpoints\r\n    }\r\n\r\n    // Define a struct for the Checkpoints\r\n    struct Checkpoint {\r\n        string location;\r\n        uint256 checkInTime;\r\n        uint256 checkOutTime;\r\n    }\r\n\r\n    // Mapping to store products by their ID\r\n    mapping(uint256 => Product) private products;\r\n\r\n    // Array to store all product IDs\r\n    uint256[] private productIds;\r\n\r\n    // Events\r\n    event ProductAdded(\r\n        uint256 productId,\r\n        string name,\r\n        uint256 price,\r\n        string manufacturerName,\r\n        string manufacturerDetails,\r\n        string longitude,\r\n        string latitude,\r\n        string category\r\n    );\r\n\r\n    event ProductCertified(\r\n        uint256 productId,\r\n        string certificateAuthority,\r\n        string certificateDocHash\r\n    );\r\n\r\n    event ProductAssignedToCourier(\r\n        uint256 productId,\r\n        address logisticsPartner\r\n    );\r\n\r\n    event ProductDelivered(\r\n        uint256 productId,\r\n        string deliveryStatus,\r\n        address logisticsPartner\r\n    );\r\n\r\n    event ProductAssignedToCustomer(\r\n        uint256 productId,\r\n        address customer\r\n    );\r\n\r\n    event CheckpointAdded(\r\n        uint256 productId,\r\n        string location,\r\n        uint256 checkInTime,\r\n        uint256 checkOutTime\r\n    );\r\n\r\n    // Function to add a product\r\n    function addProduct(\r\n    uint256 _id,\r\n    string memory _name,\r\n    uint256 _price,\r\n    string memory _manufacturerName,\r\n    string memory _manufacturerDetails,\r\n    string memory _longitude,\r\n    string memory _latitude,\r\n    string memory _category\r\n) public {\r\n    // Ensure the product does not already exist\r\n    require(products[_id].id == 0, \"Product with this ID already exists.\");\r\n\r\n    // Create the product\r\n    Product storage newProduct = products[_id];\r\n    newProduct.id = _id;\r\n    newProduct.name = _name;\r\n    newProduct.price = _price;\r\n    newProduct.manufacturerName = _manufacturerName;\r\n    newProduct.manufacturerDetails = _manufacturerDetails;\r\n    newProduct.longitude = _longitude;\r\n    newProduct.latitude = _latitude;\r\n    newProduct.category = _category;\r\n    newProduct.manufacturer = msg.sender;\r\n    newProduct.logisticsPartner = address(0);\r\n    newProduct.customer = address(0);\r\n    newProduct.deliveryStatus = \"\";\r\n    newProduct.certificateAuthority = \"\";\r\n    newProduct.digitalSignature = \"\";\r\n    newProduct.certificateDocHash = \"\";\r\n    newProduct.isCertified = false;\r\n\r\n    // Add product ID to the list of products\r\n    productIds.push(_id);\r\n\r\n    // Emit event to log the product addition\r\n    emit ProductAdded(\r\n        _id,\r\n        _name,\r\n        _price,\r\n        _manufacturerName,\r\n        _manufacturerDetails,\r\n        _longitude,\r\n        _latitude,\r\n        _category\r\n    );\r\n}\r\n\r\n    // Other functions remain the same as in your provided code\r\n    // Including certifyProduct, assignCourier, addCheckpoint, markAsDelivered, etc.\r\n\r\n\r\n\r\n\r\n    // Function to certify a product\r\n    function certifyProduct(\r\n        uint256 _productId,\r\n        string memory _certificateAuthority,\r\n        string memory _digitalSignature,\r\n        string memory _certificateDocHash\r\n    ) public {\r\n        // Ensure the product exists\r\n        require(products[_productId].id != 0, \"Product does not exist.\");\r\n\r\n        // Ensure the product is not already certified\r\n        require(!products[_productId].isCertified, \"Product is already certified.\");\r\n\r\n        // Certify the product\r\n        products[_productId].certificateAuthority = _certificateAuthority;\r\n        products[_productId].digitalSignature = _digitalSignature;\r\n        products[_productId].certificateDocHash = _certificateDocHash;\r\n        products[_productId].isCertified = true;\r\n\r\n        // Emit event to log the certification\r\n        emit ProductCertified(_productId, _certificateAuthority, _certificateDocHash);\r\n    }\r\n\r\n    // Function for logistics partner to assign themselves to a product\r\n    function assignCourier(uint256 _productId) public {\r\n        // Ensure the product exists\r\n        require(products[_productId].id != 0, \"Product does not exist.\");\r\n\r\n        // Ensure the product is certified\r\n        require(products[_productId].isCertified, \"Product must be certified before assigning a courier.\");\r\n\r\n        // Ensure the product has not already been assigned to a logistics partner\r\n        require(products[_productId].logisticsPartner == address(0), \"Product already assigned to a logistics partner.\");\r\n\r\n        // Assign the logistics partner (the caller) to the product\r\n        products[_productId].logisticsPartner = msg.sender;\r\n\r\n        // Emit event to log the assignment of the logistics partner\r\n        emit ProductAssignedToCourier(_productId, msg.sender);\r\n    }\r\n\r\n    // Function to add a checkpoint for a product\r\n    function addCheckpoint(\r\n        uint256 _productId,\r\n        string memory _location,\r\n        uint256 _checkInTime,\r\n        uint256 _checkOutTime\r\n    ) public {\r\n        // Ensure the product exists\r\n        require(products[_productId].id != 0, \"Product does not exist.\");\r\n\r\n        // Ensure the caller is the logistics partner for this product\r\n        require(products[_productId].logisticsPartner == msg.sender, \"Only the assigned logistics partner can add checkpoints.\");\r\n\r\n        // Add the checkpoint to the product\r\n        products[_productId].checkpoints.push(\r\n            Checkpoint({\r\n                location: _location,\r\n                checkInTime: _checkInTime,\r\n                checkOutTime: _checkOutTime\r\n            })\r\n        );\r\n\r\n        // Emit event to log the checkpoint addition\r\n        emit CheckpointAdded(_productId, _location, _checkInTime, _checkOutTime);\r\n    }\r\n\r\n    // Function for logistics partner to mark the product as delivered\r\n    function markAsDelivered(uint256 _productId, string memory _deliveryStatus) public {\r\n        // Ensure the product exists\r\n        require(products[_productId].id != 0, \"Product does not exist.\");\r\n\r\n        // Ensure the caller is the logistics partner for this product\r\n        require(products[_productId].logisticsPartner == msg.sender, \"Only the assigned logistics partner can mark as delivered.\");\r\n\r\n        // Ensure the product has not already been delivered\r\n        require(bytes(products[_productId].deliveryStatus).length == 0, \"Product has already been delivered.\");\r\n\r\n        // Update the delivery status\r\n        products[_productId].deliveryStatus = _deliveryStatus;\r\n\r\n        // Emit event to log the delivery\r\n        emit ProductDelivered(_productId, _deliveryStatus, msg.sender);\r\n    }\r\n\r\n    // Function to assign a product to the customer\r\n    function assignToCustomer(uint256 _productId, address _customer) public {\r\n        // Ensure the product exists\r\n        require(products[_productId].id != 0, \"Product does not exist.\");\r\n\r\n        // Ensure the caller is the manufacturer of the product\r\n        require(products[_productId].manufacturer == msg.sender, \"Only the manufacturer can assign the product to a customer.\");\r\n\r\n        // Ensure the product has been delivered\r\n        require(bytes(products[_productId].deliveryStatus).length != 0, \"Product must be delivered before assigning to customer.\");\r\n\r\n        // Assign the customer to the product\r\n        products[_productId].customer = _customer;\r\n\r\n        // Emit event to log the assignment to customer\r\n        emit ProductAssignedToCustomer(_productId, _customer);\r\n    }\r\n\r\n    // Function to get a product by ID\r\n    function getProduct(uint256 _id) public view returns (Product memory) {\r\n        // Ensure the product exists\r\n        require(products[_id].id != 0, \"Product not found.\");\r\n\r\n        // Return the entire product struct\r\n        return products[_id];\r\n    }\r\n\r\n    // Function to get all product IDs\r\n    function getAllProductIds() public view returns (uint256[] memory) {\r\n        return productIds;\r\n    }\r\n\r\n    // Function to get all checkpoints for a specific product\r\nfunction getCheckpoints(uint256 _productId) public view returns (\r\n    string[] memory locations,\r\n    uint256[] memory checkInTimes,\r\n    uint256[] memory checkOutTimes\r\n) {\r\n    // Ensure the product exists\r\n    require(products[_productId].id != 0, \"Product does not exist.\");\r\n\r\n    // Get the number of checkpoints\r\n    uint256 checkpointCount = products[_productId].checkpoints.length;\r\n\r\n    // Initialize arrays to hold checkpoint data\r\n    locations = new string[](checkpointCount);\r\n    checkInTimes = new uint256[](checkpointCount);\r\n    checkOutTimes = new uint256[](checkpointCount);\r\n\r\n    // Populate the arrays with checkpoint data\r\n    for (uint256 i = 0; i < checkpointCount; i++) {\r\n        Checkpoint memory checkpoint = products[_productId].checkpoints[i];\r\n        locations[i] = checkpoint.location;\r\n        checkInTimes[i] = checkpoint.checkInTime;\r\n        checkOutTimes[i] = checkpoint.checkOutTime;\r\n    }\r\n}\r\n\r\n}",
  "sourcePath": "D:\\my-work\\contracts\\ProductTrac.sol",
  "compiler": {
    "name": "solc",
    "version": "0.8.0+commit.c7dfd78e.Emscripten.clang"
  },
  "schemaVersion": "3.4.16",
  "updatedAt": "2024-12-27T13:52:19.983Z",
  "networkType": "ethereum",
  "devdoc": {
    "kind": "dev",
    "methods": {},
    "version": 1
  },
  "userdoc": {
    "kind": "user",
    "methods": {},
    "version": 1
  }
}